{
  "_format": "hh-sol-artifact-1",
  "contractName": "BlueberryPayLibrary",
  "sourceName": "src/contracts/libraries/BlueberryPayLibrary.sol",
  "abi": [
    {
      "inputs": [],
      "name": "getInitHashMerchant",
      "outputs": [
        {
          "internalType": "bytes32",
          "name": "hash",
          "type": "bytes32"
        }
      ],
      "stateMutability": "pure",
      "type": "function"
    },
    {
      "inputs": [],
      "name": "getInitHashOrderBook",
      "outputs": [
        {
          "internalType": "bytes32",
          "name": "hash",
          "type": "bytes32"
        }
      ],
      "stateMutability": "pure",
      "type": "function"
    }
  ],
  "bytecode": "0x61546f61003a600b82828239805160001a60731461002d57634e487b7160e01b600052600060045260246000fd5b30600052607381538281f3fe73000000000000000000000000000000000000000030146080604052600436106100405760003560e01c8063261f253914610045578063bc261e5b14610063575b600080fd5b61004d61006b565b60405161005a919061011f565b60405180910390f35b61004d6100ba565b60006040518060200161007d906100cc565b601f1982820381018352601f90910116604081905261009f91906020016100e6565b60405160208183030381529060405280519060200120905090565b60006040518060200161007d906100d9565b612eb48061012983390190565b61245d80612fdd83390190565b60008251815b8181101561010657602081860181015185830152016100ec565b818111156101145782828501525b509190910192915050565b9081526020019056fe60a0604052600a805460ff60a01b1916600160a01b1790556001600b5534801561002857600080fd5b50604080518082018252601481527f426c756562657272795061796d656e74204c50730000000000000000000000006020918201528151808301835260018152603160f81b90820152905146916100e9917f8b73c3c69bb8fe3d512ecc4cf759cc79239f7b179b0ffacaa9a75d522b39400f917f2d343c199841150b9255d2f9a2a80c625681ad3930c5c26b9ae5ae664bef2f2d917fc89efdaa54c0f20c7adf612882df0950f5a951637e0307cdcb4c672f298b8bc6918691309101610111565b60408051601f198184030181529190528051602090910120600355503360601b60805261013d565b9485526020850193909352604084019190915260608301526001600160a01b0316608082015260a00190565b60805160601c612d516200016360003960008181611032015261125d0152612d516000f3fe6080604052600436106101d15760003560e01c806370a08231116100f7578063ad5c464811610095578063dd62ed3e11610064578063dd62ed3e146104f5578063e0c5423414610515578063f07e7a7c14610535578063fab72e891461055557610200565b8063ad5c464814610496578063c45a0155146104ab578063d505accf146104c0578063d6b264a6146104e057610200565b8063812aacc1116100d1578063812aacc11461042c57806383ef916e1461044c57806395d89b4114610461578063a9059cbb1461047657610200565b806370a08231146103cc5780637ba01c42146103ec5780637ecebe001461040c57610200565b80632cfc65181161016f5780633782dbef1161013e5780633782dbef1461035757806352fc0dba146103775780636370f94c146103975780636d0501f6146103b757610200565b80632cfc6518146102f657806330adf81f1461030b578063313ce567146103205780633644e5151461034257610200565b80630b22de02116101ab5780630b22de021461027f57806318160ddd1461029f5780631cd4a3fa146102c157806323b872dd146102d657610200565b8063017e7e581461020557806306fdde0314610230578063095ea7b31461025257610200565b36610200576007546001600160a01b031633146101fe57634e487b7160e01b600052600160045260246000fd5b005b600080fd5b34801561021157600080fd5b5061021a610575565b60405161022791906123a0565b60405180910390f35b34801561023c57600080fd5b50610245610584565b60405161022791906124e8565b34801561025e57600080fd5b5061027261026d36600461223a565b6105b4565b6040516102279190612482565b34801561028b57600080fd5b5061027261029a366004611fec565b6105ca565b3480156102ab57600080fd5b506102b46108d6565b604051610227919061248d565b3480156102cd57600080fd5b5061021a6108dc565b3480156102e257600080fd5b506102726102f1366004612113565b6108eb565b34801561030257600080fd5b5061021a610981565b34801561031757600080fd5b506102b4610990565b34801561032c57600080fd5b506103356109b4565b6040516102279190612bb6565b34801561034e57600080fd5b506102b46109b9565b34801561036357600080fd5b50610272610372366004611fec565b6109bf565b34801561038357600080fd5b5061027261039236600461220d565b610bf3565b3480156103a357600080fd5b506102726103b2366004612153565b610c45565b3480156103c357600080fd5b5061021a610f30565b3480156103d857600080fd5b506102b46103e7366004611f17565b610f3f565b3480156103f857600080fd5b5061027261040736600461232f565b610f51565b34801561041857600080fd5b506102b4610427366004611f17565b611015565b34801561043857600080fd5b506101fe610447366004611f6b565b611027565b34801561045857600080fd5b50610272611200565b34801561046d57600080fd5b50610245611210565b34801561048257600080fd5b5061027261049136600461223a565b61123f565b3480156104a257600080fd5b5061021a61124c565b3480156104b757600080fd5b5061021a61125b565b3480156104cc57600080fd5b506101fe6104db366004612198565b61127f565b3480156104ec57600080fd5b5061021a6113fa565b34801561050157600080fd5b506102b4610510366004611f33565b611409565b34801561052157600080fd5b5061027261053036600461223a565b611426565b34801561054157600080fd5b50610272610550366004612153565b611491565b34801561056157600080fd5b506101fe610570366004612046565b611820565b600a546001600160a01b031681565b60405180604001604052806014815260200173426c756562657272795061796d656e74204c507360601b81525081565b60006105c1338484611996565b50600192915050565b600a54600090600160a01b900460ff166105ff5760405162461bcd60e51b81526004016105f690612a86565b60405180910390fd5b600b546001146106215760405162461bcd60e51b81526004016105f690612977565b6000600b8190556008546040516332c13e1960e01b81526001600160a01b03909116906332c13e199061065a9089908890600401612469565b6101606040518083038186803b15801561067357600080fd5b505afa158015610687573d6000803e3d6000fd5b505050506040513d601f19601f820116820180604052508101906106ab9190612281565b9050856001600160a01b031681604001516001600160a01b0316146106e25760405162461bcd60e51b81526004016105f690612589565b60018160800151600581111561070857634e487b7160e01b600052602160045260246000fd5b14801561072a5750806101000151421015801561072a57504281610120015111155b80610758575060028160800151600581111561075657634e487b7160e01b600052602160045260246000fd5b145b6107745760405162461bcd60e51b81526004016105f690612afe565b61077e85846119fe565b83856001600160a01b0316600080516020612cfc833981519152856040516107a6919061248d565b60405180910390a360085460405162fb8ec560e11b81526000916001600160a01b0316906301f71d8a906107e5908b908b908a90600390600401612434565b602060405180830381600087803b1580156107ff57600080fd5b505af1158015610813573d6000803e3d6000fd5b505050506040513d601f19601f820116820180604052508101906108379190612265565b9050806108565760405162461bcd60e51b81526004016105f6906125c0565b600754604051632e1a7d4d60e01b81526001600160a01b0390911690632e1a7d4d9061088690879060040161248d565b600060405180830381600087803b1580156108a057600080fd5b505af11580156108b4573d6000803e3d6000fd5b505050506108c28785611a96565b6001925050506001600b5595945050505050565b60005481565b6005546001600160a01b031681565b6001600160a01b03831660009081526002602090815260408083203384529091528120546000191461096b576001600160a01b0384166000908152600260209081526040808320338452909152902054610946908390612c53565b6001600160a01b03851660009081526002602090815260408083203384529091529020555b610976848484611b28565b5060015b9392505050565b6008546001600160a01b031681565b7f6e71edae12b1b97f4d1f60370fef10105fa2faae0126114a169c64845d6126c981565b601281565b60035481565b6000600b546001146109e35760405162461bcd60e51b81526004016105f690612977565b6000600b8190556008546040516332c13e1960e01b81528892916001600160a01b0316906332c13e1990610a1d908a908990600401612469565b6101606040518083038186803b158015610a3657600080fd5b505afa158015610a4a573d6000803e3d6000fd5b505050506040513d601f19601f82011682018060405250810190610a6e9190612281565b9050866001600160a01b031681604001516001600160a01b031614610aa55760405162461bcd60e51b81526004016105f690612589565b600481608001516005811115610acb57634e487b7160e01b600052602160045260246000fd5b14610ae85760405162461bcd60e51b81526004016105f690612750565b610af286856119fe565b84866001600160a01b0316600080516020612cfc83398151915286604051610b1a919061248d565b60405180910390a360085460405162fb8ec560e11b81526000916001600160a01b0316906301f71d8a90610b59908c908c908b90600390600401612434565b602060405180830381600087803b158015610b7357600080fd5b505af1158015610b87573d6000803e3d6000fd5b505050506040513d601f19601f82011682018060405250810190610bab9190612265565b905080610bca5760405162461bcd60e51b81526004016105f690612552565b610bde6001600160a01b0384168887611bce565b600193505050506001600b5595945050505050565b6005546000906001600160a01b03848116911614610c235760405162461bcd60e51b81526004016105f6906125f7565b50600a8054821515600160a01b0260ff60a01b19909116179055600192915050565b6000600b54600114610c695760405162461bcd60e51b81526004016105f690612977565b6000600b55600a54600160a01b900460ff16610c975760405162461bcd60e51b81526004016105f690612a86565b6008546040516332c13e1960e01b8152859185916000916001600160a01b0316906332c13e1990610cce9086908690600401612469565b6101606040518083038186803b158015610ce757600080fd5b505afa158015610cfb573d6000803e3d6000fd5b505050506040513d601f19601f82011682018060405250810190610d1f9190612281565b9050826001600160a01b031681602001516001600160a01b031614610d565760405162461bcd60e51b81526004016105f690612719565b6008546040516332c13e1960e01b815289916000916001600160a01b03909116906332c13e1990610d8d908c908c90600401612469565b6101606040518083038186803b158015610da657600080fd5b505afa158015610dba573d6000803e3d6000fd5b505050506040513d601f19601f82011682018060405250810190610dde9190612281565b9050600281608001516005811115610e0657634e487b7160e01b600052602160045260246000fd5b14610e235760405162461bcd60e51b81526004016105f690612793565b610e2d89886119fe565b87896001600160a01b0316600080516020612cfc83398151915289604051610e55919061248d565b60405180910390a360085460405162fb8ec560e11b81526000916001600160a01b0316906301f71d8a90610e94908e908e908e90600390600401612434565b602060405180830381600087803b158015610eae57600080fd5b505af1158015610ec2573d6000803e3d6000fd5b505050506040513d601f19601f82011682018060405250810190610ee69190612265565b905080610f055760405162461bcd60e51b81526004016105f6906128cb565b610f196001600160a01b0384168b8a611bce565b6001965050505050506001600b5550949350505050565b6009546001600160a01b031681565b60016020526000908152604090205481565b6000600b54600114610f755760405162461bcd60e51b81526004016105f690612977565b6000600b55600a54610f90906001600160a01b0316836119fe565b600754604051632e1a7d4d60e01b81526001600160a01b0390911690632e1a7d4d90610fc090859060040161248d565b600060405180830381600087803b158015610fda57600080fd5b505af1158015610fee573d6000803e3d6000fd5b5050600a5461100992506001600160a01b0316905083611a96565b50600180600b55919050565b60046020526000908152604090205481565b336001600160a01b037f0000000000000000000000000000000000000000000000000000000000000000161461106f5760405162461bcd60e51b81526004016105f69061262e565b6001600160a01b0386166110955760405162461bcd60e51b81526004016105f690612abb565b6001600160a01b0385166110bb5760405162461bcd60e51b81526004016105f69061269c565b6001600160a01b0384166110e15760405162461bcd60e51b81526004016105f690612894565b6001600160a01b0382166111075760405162461bcd60e51b81526004016105f690612932565b6001600160a01b03811661112d5760405162461bcd60e51b81526004016105f6906128fb565b6001600160a01b0383166111535760405162461bcd60e51b81526004016105f690612817565b600680546001600160a01b03199081166001600160a01b038981169190911790925560078054821688841617905560088054821687841617908190556009805483168785161790556005805483168685161790819055600a8054909316858516179092556040519083169230927fa4d2201137159ee76f2b07b68f91cdc2496df5a30c9552bd2781ebc5a06610cb926111f09291909116906123a0565b60405180910390a3505050505050565b600a54600160a01b900460ff1681565b604051806040016040528060138152602001720426c756562657272795061796d656e742d4c5606c1b81525081565b60006105c1338484611b28565b6007546001600160a01b031681565b7f000000000000000000000000000000000000000000000000000000000000000081565b4284101561129f5760405162461bcd60e51b81526004016105f6906129a0565b6003546001600160a01b038816600090815260046020526040812080549192917f6e71edae12b1b97f4d1f60370fef10105fa2faae0126114a169c64845d6126c9918b918b918b9190876112f283612c9a565b919050558a60405160200161130c96959493929190612496565b60405160208183030381529060405280519060200120604051602001611333929190612385565b60405160208183030381529060405280519060200120905060006001828686866040516000815260200160405260405161137094939291906124ca565b6020604051602081039080840390855afa158015611392573d6000803e3d6000fd5b5050604051601f1901519150506001600160a01b038116158015906113c85750886001600160a01b0316816001600160a01b0316145b6113e45760405162461bcd60e51b81526004016105f690612b51565b6113ef898989611996565b505050505050505050565b6006546001600160a01b031681565b600260209081526000928352604080842090915290825290205481565b6000600b5460011461144a5760405162461bcd60e51b81526004016105f690612977565b6000600b55600a54611465906001600160a01b0316836119fe565b600a548390611481906001600160a01b03808416911685611bce565b60019150506001600b5592915050565b600a54600090600160a01b900460ff166114bd5760405162461bcd60e51b81526004016105f690612a86565b6008546040516332c13e1960e01b8152859185916000916001600160a01b0316906332c13e19906114f49086908690600401612469565b6101606040518083038186803b15801561150d57600080fd5b505afa158015611521573d6000803e3d6000fd5b505050506040513d601f19601f820116820180604052508101906115459190612281565b9050826001600160a01b031681602001516001600160a01b03161461157c5760405162461bcd60e51b81526004016105f690612719565b600b5460011461159e5760405162461bcd60e51b81526004016105f690612977565b6000600b8190556008546040516332c13e1960e01b81526001600160a01b03909116906332c13e19906115d7908b908b90600401612469565b6101606040518083038186803b1580156115f057600080fd5b505afa158015611604573d6000803e3d6000fd5b505050506040513d601f19601f820116820180604052508101906116289190612281565b905060018160800151600581111561165057634e487b7160e01b600052602160045260246000fd5b1480156116725750806101000151421015801561167257504281610120015111155b806116a0575060028160800151600581111561169e57634e487b7160e01b600052602160045260246000fd5b145b6116bc5760405162461bcd60e51b81526004016105f690612afe565b6116c688876119fe565b86886001600160a01b0316600080516020612cfc833981519152886040516116ee919061248d565b60405180910390a360085460405162fb8ec560e11b81526000916001600160a01b0316906301f71d8a9061172d908d908d908d90600390600401612434565b602060405180830381600087803b15801561174757600080fd5b505af115801561175b573d6000803e3d6000fd5b505050506040513d601f19601f8201168201806040525081019061177f9190612265565b90508061179e5760405162461bcd60e51b81526004016105f690612665565b600754604051632e1a7d4d60e01b81526001600160a01b0390911690632e1a7d4d906117ce908a9060040161248d565b600060405180830381600087803b1580156117e857600080fd5b505af11580156117fc573d6000803e3d6000fd5b5050505061180a8988611a96565b60019550505050506001600b5550949350505050565b600b546001146118425760405162461bcd60e51b81526004016105f690612977565b6000600b55846118645760405162461bcd60e51b81526004016105f69061251b565b600061186f86611c24565b9050600061187d8288612c53565b90506118898883611c6a565b85886001600160a01b03167f4c209b5fc8ad50758f13e2e1088ba56a560dff690a1c6fef26394f4c03821c4f846040516118c3919061248d565b60405180910390a36118d481611ced565b6008546040516316ba81cb60e01b81526000916001600160a01b0316906316ba81cb90611913908e908d908f908e908e908e908e908e906004016123b4565b602060405180830381600087803b15801561192d57600080fd5b505af1158015611941573d6000803e3d6000fd5b505050506040513d601f19601f820116820180604052508101906119659190612265565b9050806119845760405162461bcd60e51b81526004016105f690612b88565b50506001600b55505050505050505050565b6001600160a01b0380841660008181526002602090815260408083209487168084529490915290819020849055517f8c5be1e5ebec7d5bd14f71427d1e84f3dd0314c0f7b2291e5b200ac8c7c3b925906119f190859061248d565b60405180910390a3505050565b6001600160a01b038216600090815260016020526040902054611a22908290612c53565b6001600160a01b03831660009081526001602052604081209190915554611a4a908290612c53565b60009081556040516001600160a01b038416907fddf252ad1be2c89b69c2b068fc378daa952ba7f163c4a11628f55a4df523b3ef90611a8a90859061248d565b60405180910390a35050565b604080516000808252602082019092526001600160a01b038416908390604051611ac09190612369565b60006040518083038185875af1925050503d8060008114611afd576040519150601f19603f3d011682016040523d82523d6000602084013e611b02565b606091505b5050905080611b235760405162461bcd60e51b81526004016105f69061284e565b505050565b6001600160a01b038316600090815260016020526040902054611b4c908290612c53565b6001600160a01b038085166000908152600160205260408082209390935590841681522054611b7c908290612bfc565b6001600160a01b0380841660008181526001602052604090819020939093559151908516907fddf252ad1be2c89b69c2b068fc378daa952ba7f163c4a11628f55a4df523b3ef906119f190859061248d565b611b238363a9059cbb60e01b8484604051602401611bed929190612469565b60408051601f198184030181529190526020810180516001600160e01b03166001600160e01b031990931692909217909152611d26565b6000808211611c455760405162461bcd60e51b81526004016105f6906127e0565b6000611c53836103de612c34565b9050611c616103e882612c14565b9150505b919050565b80600054611c789190612bfc565b60009081556001600160a01b038316815260016020526040902054611c9e908290612bfc565b6001600160a01b0383166000818152600160205260408082209390935591519091907fddf252ad1be2c89b69c2b068fc378daa952ba7f163c4a11628f55a4df523b3ef90611a8a90859061248d565b60008111611d0d5760405162461bcd60e51b81526004016105f690612a05565b600a54611d23906001600160a01b031682611c6a565b50565b6000611d7b826040518060400160405280602081526020017f5361666545524332303a206c6f772d6c6576656c2063616c6c206661696c6564815250856001600160a01b0316611db59092919063ffffffff16565b805190915015611b235780806020019051810190611d999190612265565b611b235760405162461bcd60e51b81526004016105f690612a3c565b6060611dc48484600085611dcc565b949350505050565b606082471015611dee5760405162461bcd60e51b81526004016105f6906126d3565b611df785611e8c565b611e135760405162461bcd60e51b81526004016105f6906129ce565b600080866001600160a01b03168587604051611e2f9190612369565b60006040518083038185875af1925050503d8060008114611e6c576040519150601f19603f3d011682016040523d82523d6000602084013e611e71565b606091505b5091509150611e81828286611ebd565b979650505050505050565b600080826001600160a01b0316803b806020016040519081016040528181526000908060200190933c511192915050565b60608315611ecc57508161097a565b825115611edc5782518084602001fd5b8160405162461bcd60e51b81526004016105f691906124e8565b8051611c6581612ccb565b8035611c6581612cee565b8051611c6581612cee565b600060208284031215611f28578081fd5b813561097a81612ccb565b60008060408385031215611f45578081fd5b8235611f5081612ccb565b91506020830135611f6081612ccb565b809150509250929050565b60008060008060008060c08789031215611f83578182fd5b8635611f8e81612ccb565b95506020870135611f9e81612ccb565b94506040870135611fae81612ccb565b93506060870135611fbe81612ccb565b92506080870135611fce81612ccb565b915060a0870135611fde81612ccb565b809150509295509295509295565b600080600080600060a08688031215612003578081fd5b853561200e81612ccb565b9450602086013561201e81612ccb565b9350604086013561202e81612ccb565b94979396509394606081013594506080013592915050565b600080600080600080600080610120898b031215612062578182fd5b883561206d81612ccb565b975060208981013561207e81612ccb565b975060408a013561208e81612ccb565b965060608a0135955060808a0135945060bf8a018b136120ac578283fd5b6120b66040612bc4565b8060a08c0160e08d018e8111156120cb578687fd5b865b60028110156120ea578235855293850193918501916001016120cd565b508297506120f781611f01565b9650505050505061010089013590509295985092959890939650565b600080600060608486031215612127578283fd5b833561213281612ccb565b9250602084013561214281612ccb565b929592945050506040919091013590565b60008060008060808587031215612168578182fd5b843561217381612ccb565b9350602085013561218381612ccb565b93969395505050506040820135916060013590565b600080600080600080600060e0888a0312156121b2578081fd5b87356121bd81612ccb565b965060208801356121cd81612ccb565b95506040880135945060608801359350608088013560ff811681146121f0578182fd5b9699959850939692959460a0840135945060c09093013592915050565b6000806040838503121561221f578182fd5b823561222a81612ccb565b91506020830135611f6081612ce0565b6000806040838503121561224c578182fd5b823561225781612ccb565b946020939093013593505050565b600060208284031215612276578081fd5b815161097a81612ce0565b6000610160808385031215612294578182fd5b61229d81612bc4565b90506122a883611ef6565b81526122b660208401611ef6565b60208201526122c760408401611ef6565b6040820152606083015160608201526122e260808401611f0c565b608082015260a0838101519082015260c0808401519082015260e0808401519082015261010080840151908201526101208084015190820152610140928301519281019290925250919050565b600060208284031215612340578081fd5b5035919050565b6006811061236557634e487b7160e01b600052602160045260246000fd5b9052565b6000825161237b818460208701612c6a565b9190910192915050565b61190160f01b81526002810192909252602282015260420190565b6001600160a01b0391909116815260200190565b6001600160a01b0389811682528881166020808401919091529088166040830152606082018790526080820186905261012082019060a08301908660005b600281101561240f578151845292820192908201906001016123f2565b5050505061242060e0830185612347565b826101008301529998505050505050505050565b6001600160a01b0385811682528416602082015260408101839052608081016124606060830184612347565b95945050505050565b6001600160a01b03929092168252602082015260400190565b901515815260200190565b90815260200190565b9586526001600160a01b0394851660208701529290931660408501526060840152608083019190915260a082015260c00190565b93845260ff9290921660208401526040830152606082015260800190565b6000602082528251806020840152612507816040850160208701612c6a565b601f01601f19169190910160400192915050565b6020808252601d908201527f4250533a3a6d696e7420494e53554646494349454e545f414d4f554e54000000604082015260600190565b60208082526018908201527f4250533a3a6275726e437573746f6d6572206661696c65640000000000000000604082015260600190565b6020808252601a908201527f4250533a3a4f6e6c7920437573746f6d657220616c6c6f776564000000000000604082015260600190565b6020808252601c908201527f4250533a3a6275726e437573746f6d657241564158206661696c656400000000604082015260600190565b6020808252601f908201527f4250533a3a4f6e6c79205061796d656e74204f776e657220416c6c6f77656400604082015260600190565b60208082526019908201527f4250533a3a696e697469616c697a6520464f5242494444454e00000000000000604082015260600190565b6020808252601a908201527f4250533a3a6275726e53656c6c657241564158206661696c6564000000000000604082015260600190565b60208082526017908201527f4250533a3a5f5745544820616464726573732069732030000000000000000000604082015260600190565b60208082526026908201527f416464726573733a20696e73756666696369656e742062616c616e636520666f6040820152651c8818d85b1b60d21b606082015260800190565b60208082526018908201527f4250533a3a4f6e6c792053656c6c657220616c6c6f7765640000000000000000604082015260600190565b60208082526023908201527f4250533a3a4f726465725374617465204e6f742065787065637465642073746160408201526274757360e81b606082015260800190565b6020808252602d908201527f4250533a3a6275726e53656c6c6572202d204e6f74206578706563746564207360408201526c7461747573206f722074696d6560981b606082015260800190565b6020808252601e908201527f416d6f756e744f75743a20494e53554646494349454e545f414d4f554e540000604082015260600190565b6020808252601b908201527f4250533a3a5f6d65646961746f72206164647265737320697320300000000000604082015260600190565b60208082526026908201527f5472616e7366657248656c7065723a3a736166655472616e736665724554482060408201526519985a5b195960d21b606082015260800190565b6020808252601b908201527f4250533a3a5f6f72646572554944206164647265737320697320300000000000604082015260600190565b602080825260169082015275109414ce8e989d5c9b94d95b1b195c8819985a5b195960521b604082015260600190565b60208082526018908201527f4250533a3a5f666565546f206164647265737320697320300000000000000000604082015260600190565b60208082526025908201527f4250533a3a5f7061796d656e7453797374656d4f776e65722061646472657373604082015264020697320360dc1b606082015260800190565b6020808252600f908201526e109414ce9b1bd8dac81313d0d2d151608a1b604082015260600190565b602080825260149082015273109b1d5958995c9c9e558c8e881156141254915160621b604082015260600190565b6020808252601d908201527f416464726573733a2063616c6c20746f206e6f6e2d636f6e7472616374000000604082015260600190565b6020808252601c908201527f4250533a3a6d696e744665652046454520414d4f554e54204953203000000000604082015260600190565b6020808252602a908201527f5361666545524332303a204552433230206f7065726174696f6e20646964206e6040820152691bdd081cdd58d8d9595960b21b606082015260800190565b6020808252818101527f4250533a3a5061796d656e7453797374656d206973206e6f7420616374697665604082015260600190565b60208082526023908201527f4250533a3a5f7061796d656e7453797374656d5549442061646472657373206960408201526207320360ec1b606082015260800190565b60208082526033908201527f4250533a3a6275726e437573746f6d657241564158202d204e6f7420657870656040820152726374656420737461747573206f722074696d6560681b606082015260800190565b6020808252601e908201527f426c7565626572727956323a20494e56414c49445f5349474e41545552450000604082015260600190565b602080825260149082015273109414ce8e98591913dc99195c8819985a5b195960621b604082015260600190565b60ff91909116815260200190565b60405181810167ffffffffffffffff81118282101715612bf457634e487b7160e01b600052604160045260246000fd5b604052919050565b60008219821115612c0f57612c0f612cb5565b500190565b600082612c2f57634e487b7160e01b81526012600452602481fd5b500490565b6000816000190483118215151615612c4e57612c4e612cb5565b500290565b600082821015612c6557612c65612cb5565b500390565b60005b83811015612c85578181015183820152602001612c6d565b83811115612c94576000848401525b50505050565b6000600019821415612cae57612cae612cb5565b5060010190565b634e487b7160e01b600052601160045260246000fd5b6001600160a01b0381168114611d2357600080fd5b8015158114611d2357600080fd5b60068110611d2357600080fdfe49995e5dd6158cf69ad3e9777c46755a1a826a446c6416992167462dad033b2aa2646970667358221220e749027e9a29f0efd55af555cd850ed5cac66e890a78cdf4fa6643e040feadde64736f6c6343000800003360a0604052603c600255600160045534801561001a57600080fd5b5033606081901b60805261241a610043600039600081816113ec0152611419015261241a6000f3fe608060405234801561001057600080fd5b506004361061010b5760003560e01c8063a80a3baa116100a2578063c16667d911610071578063c16667d91461022a578063c45a01551461023d578063c70382d814610245578063d6b264a614610258578063edb25841146102605761010b565b8063a80a3baa146101cd578063b4ffafa7146101ed578063b99d53b714610202578063bbf047a0146102175761010b565b80634c909039116100de5780634c9090391461017f5780635b5601e5146101925780636d0501f6146101a55780637ed7f23c146101ba5761010b565b806301f71d8a1461011057806316ba81cb1461013957806332c13e191461014c57806338927df91461016c575b600080fd5b61012361011e366004611d7c565b61028a565b6040516101309190611f7d565b60405180910390f35b610123610147366004611cbe565b6105ad565b61015f61015a366004611dc8565b61085f565b60405161013091906122cf565b61012361017a366004611d7c565b61095a565b61012361018d366004611c64565b610b1e565b6101236101a0366004611d41565b610bac565b6101ad610e31565b6040516101309190611e80565b6101236101c8366004611d41565b610e40565b6101e06101db366004611dc8565b610e83565b6040516101309190611f88565b6101f5610ff2565b604051610130919061236e565b610215610210366004611c64565b610ff8565b005b6101f5610225366004611dc8565b61118c565b610123610238366004611bf8565b6111b7565b6101ad6113ea565b610215610253366004611bc6565b61140e565b6101ad611515565b61027361026e366004611dc8565b611524565b6040516101309b9a99989796959493929190611eed565b6001600160a01b038084166000908152600560208181526040808420878552825280842081516101608101835281548716815260018201548716938101939093526002810154909516908201526003840154606082015260048401549293849391929091608084019160ff9091169081111561031657634e487b7160e01b600052602160045260246000fd5b600581111561033557634e487b7160e01b600052602160045260246000fd5b81526020016005820154815260200160068201548152602001600782015481526020016008820154815260200160098201548152602001600a82015481525050905082600581111561039757634e487b7160e01b600052602160045260246000fd5b846000805160206123c583398151915230846020015185604001518b8760a001518860c001518960e001518a61010001518b61012001518c61014001516040516103ea9a99989796959493929190611e94565b60405180910390a36005600082602001516001600160a01b03166001600160a01b031681526020019081526020016000206000858152602001908152602001600020600080820160006101000a8154906001600160a01b0302191690556001820160006101000a8154906001600160a01b0302191690556002820160006101000a8154906001600160a01b03021916905560038201600090556004820160006101000a81549060ff021916905560058201600090556006820160009055600782016000905560088201600090556009820160009055600a82016000905550506005600082604001516001600160a01b03166001600160a01b031681526020019081526020016000206000858152602001908152602001600020600080820160006101000a8154906001600160a01b0302191690556001820160006101000a8154906001600160a01b0302191690556002820160006101000a8154906001600160a01b03021916905560038201600090556004820160006101000a81549060ff021916905560058201600090556006820160009055600782016000905560088201600090556009820160009055600a82016000905550506001915050949350505050565b60006105b98886611597565b1561075a576105ca888887866115d8565b9050806105f25760405162461bcd60e51b81526004016105e990612004565b60405180910390fd5b6001600160a01b0380891660009081526005602081815260408084208a855282528084208151610160810183528154871681526001820154871693810193909352600281015490951690820152600384015460608201526004840154929390929091608084019160ff169081111561067a57634e487b7160e01b600052602160045260246000fd5b600581111561069957634e487b7160e01b600052602160045260246000fd5b81526020016005820154815260200160068201548152602001600782015481526020016008820154815260200160098201548152602001600a8201548152505090508360058111156106fb57634e487b7160e01b600052602160045260246000fd5b866000805160206123c5833981519152308c8c8f8d8c600060200201518d600160200201518a61010001518b61012001518c61014001516040516107489a99989796959493929190611e94565b60405180910390a36001915050610853565b600354851461077b5760405162461bcd60e51b81526004016105e99061214f565b61078b898989888a898989611694565b9050806107aa5760405162461bcd60e51b81526004016105e990612091565b6001600360008282546107bd9190612377565b9091555083905060058111156107e357634e487b7160e01b600052602160045260246000fd5b857f37c6225f4982e8c1352662a6dc83d76aaf4600bfe7b0de64c09a7a509d10d11c308b8b8e8c8b600060200201518c60016020020151426108268d600161238f565b6108309042612377565b8d6040516108479a99989796959493929190611e94565b60405180910390a35060015b98975050505050505050565b610867611ac0565b6001600160a01b0380841660009081526005602081815260408084208785528252928390208351610160810185528154861681526001820154861692810192909252600281015490941692810192909252600383015460608301526004830154919291608084019160ff909116908111156108f257634e487b7160e01b600052602160045260246000fd5b600581111561091157634e487b7160e01b600052602160045260246000fd5b81526020016005820154815260200160068201548152602001600782015481526020016008820154815260200160098201548152602001600a8201548152505090505b92915050565b6000838382806001600160a01b03841660009081526005602081815260408084208785529091529091206004015460ff16908111156109a957634e487b7160e01b600052602160045260246000fd5b146109c65760405162461bcd60e51b81526004016105e99061224b565b6001600160a01b0380881660009081526005602081815260408084208b8552825280842081516101608101835281548716815260018201548716938101939093526002810154909516908201526003840154606082015260048401548b948b94939091608084019160ff90911690811115610a5157634e487b7160e01b600052602160045260246000fd5b6005811115610a7057634e487b7160e01b600052602160045260246000fd5b81526020016005820154815260200160068201548152602001600782015481526020016008820154815260200160098201548152602001600a82015481525050905060006001600160a01b031681602001516001600160a01b0316141580610ae4575060408101516001600160a01b031615155b610b005760405162461bcd60e51b81526004016105e990611fcd565b610b0c8b8b8b8b61028a565b5060019b9a5050505050505050505050565b6000600160036000828254610b339190612377565b90915550610b459050878787876119d0565b6003837f37c6225f4982e8c1352662a6dc83d76aaf4600bfe7b0de64c09a7a509d10d11c3089898c8a89600060200201518a60016020020151424242604051610b979a99989796959493929190611e94565b60405180910390a35060019695505050505050565b600082826001806001600160a01b03841660009081526005602081815260408084208785529091529091206004015460ff1690811115610bfc57634e487b7160e01b600052602160045260246000fd5b14610c195760405162461bcd60e51b81526004016105e99061224b565b6001600160a01b0380871660009081526005602090815260408083208984529091529020600201548791879116610c625760405162461bcd60e51b81526004016105e99061203b565b6001600160a01b0380891660009081526005602081815260408084208c855282528084208151610160810183528154871681526001820154871693810193909352600281015490951690820152600384015460608201526004840154929390929091608084019160ff1690811115610cea57634e487b7160e01b600052602160045260246000fd5b6005811115610d0957634e487b7160e01b600052602160045260246000fd5b815260058281015460208084019190915260068401546040808501919091526007850154606085015260088501546080850152600985015460a0850152600a9094015460c090930192909252838201516001600160a01b031660009081529082528281208c825290915220600401805491925060029160ff191660018302179055506040808201516001600160a01b03166000908152600560209081528282208b835290522060040180546002919060ff191660018302179055506002886000805160206123c583398151915230846020015185604001518f8760a001518860c001518960e001518a61010001518b61012001518c6101400151604051610e199a99989796959493929190611e94565b60405180910390a35060019998505050505050505050565b6001546001600160a01b031681565b600080546001600160a01b03163314610e6b5760405162461bcd60e51b81526004016105e990612216565b610e78848484600361028a565b506001949350505050565b6001600160a01b0380831660009081526005602081815260408084208685528252808420815161016081018352815487168152600182015487169381019390935260028101549095169082015260038401546060820152600484015492938693869386939291608084019160ff90911690811115610f1157634e487b7160e01b600052602160045260246000fd5b6005811115610f3057634e487b7160e01b600052602160045260246000fd5b81526020016005820154815260200160068201548152602001600782015481526020016008820154815260200160098201548152602001600a82015481525050905060006001600160a01b031681602001516001600160a01b0316141580610fa4575060408101516001600160a01b031615155b610fc05760405162461bcd60e51b81526004016105e990611fcd565b505050506001600160a01b03919091166000908152600560209081526040808320938352929052206004015460ff1690565b60035490565b60035483146110195760405162461bcd60e51b81526004016105e990612072565b60016003600082825461102c9190612377565b90915550506001600160a01b03808616600090815260056020818152604080842088855282528084208151610160810183528154871681526001820154871693810193909352600281015490951690820152600384015460608201526004840154929390929091608084019160ff16908111156110b957634e487b7160e01b600052602160045260246000fd5b60058111156110d857634e487b7160e01b600052602160045260246000fd5b815260058201546020820152600682015460408201526007820154606082015260088201546080820152600982015460a0820152600a9091015460c09091015290506003847f37c6225f4982e8c1352662a6dc83d76aaf4600bfe7b0de64c09a7a509d10d11c3089898c8989600060200201518a600160200201518a61010001518b61012001518c610140015160405161117b9a99989796959493929190611e94565b60405180910390a350505050505050565b6001600160a01b03919091166000908152600560208181526040808420948452939052919020015490565b60015460009086906001600160a01b038083169116146111e95760405162461bcd60e51b81526004016105e990612298565b6001600160a01b03808716600090815260056020818152604080842089855282528084208151610160810183528154871681526001820154871693810193909352600281015490951690820152600384015460608201526004840154929390929091608084019160ff169081111561127157634e487b7160e01b600052602160045260246000fd5b600581111561129057634e487b7160e01b600052602160045260246000fd5b81526020016005820154815260200160068201548152602001600782015481526020016008820154815260200160098201548152602001600a82015481525050905060006112e0888888886115d8565b9050806112ff5760405162461bcd60e51b81526004016105e99061219e565b84600581111561131f57634e487b7160e01b600052602160045260246000fd5b866000805160206123c583398151915230856020015186604001518f8860a001518960c001518a60e001518b61010001518c61012001518d61014001516040516113729a99989796959493929190611e94565b60405180910390a3600485600581111561139c57634e487b7160e01b600052602160045260246000fd5b14806113c7575060038560058111156113c557634e487b7160e01b600052602160045260246000fd5b145b156113da576113d88a89888861028a565b505b5060019998505050505050505050565b7f000000000000000000000000000000000000000000000000000000000000000081565b336001600160a01b037f000000000000000000000000000000000000000000000000000000000000000016146114565760405162461bcd60e51b81526004016105e990611f96565b6001600160a01b03821661147c5760405162461bcd60e51b81526004016105e9906120c8565b6001600160a01b0381166114a25760405162461bcd60e51b81526004016105e9906121df565b600080546001600160a01b038085166001600160a01b03199283161792839055600180548583169316929092179182905560405130938216927ffaa26e48302948bffb5b7c83ab8db0b25572feabec87e37f1795c1eb7d16dbdc9261150992911690611e80565b60405180910390a35050565b6000546001600160a01b031681565b6005602081815260009384526040808520909152918352912080546001820154600283015460038401546004850154958501546006860154600787015460088801546009890154600a909901546001600160a01b039889169a978916999890961697949660ff169593949293919290918b565b6001600160a01b038281166000908152600560209081526040808320858452909152812060020154909116156115cf57506001610954565b50600092915050565b6001600160a01b038416600090815260056020818152604080842086855290915282206004018054849260ff1990911690600190849081111561162b57634e487b7160e01b600052602160045260246000fd5b02179055506001600160a01b03841660009081526005602081815260408084208785529091529091206004018054849260ff1990911690600190849081111561168457634e487b7160e01b600052602160045260246000fd5b0217905550600195945050505050565b60006040518061016001604052808a6001600160a01b03168152602001896001600160a01b03168152602001886001600160a01b031681526020018781526020018460058111156116f557634e487b7160e01b600052602160045260246000fd5b815260208101879052855160408201526060018560016020020151815260200142815260200160025484611729919061238f565b6117339042612377565b815260209081018490526001600160a01b03808b166000908152600580845260408083208c8452855291829020855181549085166001600160a01b031991821617825594860151600180830180549287169288169290921790915592860151600282018054919095169516949094179092556060840151600384015560808401516004840180549193909260ff19909216919084908111156117e557634e487b7160e01b600052602160045260246000fd5b021790555060a0820151816005015560c0820151816006015560e082015181600701556101008201518160080155610120820151816009015561014082015181600a01559050506040518061016001604052808a6001600160a01b03168152602001896001600160a01b03168152602001886001600160a01b0316815260200187815260200184600581111561188b57634e487b7160e01b600052602160045260246000fd5b8152602081018790528551604082015260600185600160200201518152602001428152602001600254846118bf919061238f565b6118c99042612377565b815260209081018490526001600160a01b03808a166000908152600580845260408083208c8452855291829020855181549085166001600160a01b031991821617825594860151600180830180549287169288169290921790915592860151600282018054919095169516949094179092556060840151600384015560808401516004840180549193909260ff199092169190849081111561197b57634e487b7160e01b600052602160045260246000fd5b021790555060a0820151600582015560c0820151600682015560e082015160078201556101008201516008820155610120820151600982015561014090910151600a9091015550600198975050505050505050565b600080856001600160a01b03166323b872dd8686866040516024016119f793929190611f59565b6040516020818303038152906040529060e01b6020820180516001600160e01b038381831617835250505050604051611a309190611e47565b6000604051808303816000865af19150503d8060008114611a6d576040519150601f19603f3d011682016040523d82523d6000602084013e611a72565b606091505b5091509150818015611a9c575080511580611a9c575080806020019051810190611a9c9190611df1565b611ab85760405162461bcd60e51b81526004016105e99061210c565b505050505050565b604080516101608101825260008082526020820181905291810182905260608101829052906080820190815260006020820181905260408201819052606082018190526080820181905260a0820181905260c09091015290565b80356001600160a01b0381168114611b3157600080fd5b919050565b600082601f830112611b46578081fd5b6040516040810181811067ffffffffffffffff82111715611b7557634e487b7160e01b83526041600452602483fd5b8060405250808385604086011115611b8b578384fd5b835b6002811015611bac578135835260209283019290910190600101611b8d565b509195945050505050565b803560068110611b3157600080fd5b60008060408385031215611bd8578182fd5b611be183611b1a565b9150611bef60208401611b1a565b90509250929050565b60008060008060008060c08789031215611c10578182fd5b611c1987611b1a565b9550611c2760208801611b1a565b9450611c3560408801611b1a565b9350611c4360608801611b1a565b925060808701359150611c5860a08801611bb7565b90509295509295509295565b60008060008060008060e08789031215611c7c578182fd5b611c8587611b1a565b9550611c9360208801611b1a565b9450611ca160408801611b1a565b93506060870135925060808701359150611c588860a08901611b36565b600080600080600080600080610120898b031215611cda578182fd5b611ce389611b1a565b9750611cf160208a01611b1a565b9650611cff60408a01611b1a565b95506060890135945060808901359350611d1c8a60a08b01611b36565b9250611d2a60e08a01611bb7565b915061010089013590509295985092959890939650565b600080600060608486031215611d55578283fd5b611d5e84611b1a565b9250611d6c60208501611b1a565b9150604084013590509250925092565b60008060008060808587031215611d91578384fd5b611d9a85611b1a565b9350611da860208601611b1a565b925060408501359150611dbd60608601611bb7565b905092959194509250565b60008060408385031215611dda578182fd5b611de383611b1a565b946020939093013593505050565b600060208284031215611e02578081fd5b81518015158114611e11578182fd5b9392505050565b6001600160a01b03169052565b60068110611e4357634e487b7160e01b600052602160045260246000fd5b9052565b60008251815b81811015611e675760208186018101518583015201611e4d565b81811115611e755782828501525b509190910192915050565b6001600160a01b0391909116815260200190565b6001600160a01b039a8b168152988a1660208a01529689166040890152949097166060870152608086019290925260a085015260c084015260e08301939093526101008201929092526101208101919091526101400190565b6001600160a01b038c811682528b811660208301528a166040820152606081018990526101608101611f22608083018a611e25565b8760a08301528660c08301528560e08301528461010083015283610120830152826101408301529c9b505050505050505050505050565b6001600160a01b039384168152919092166020820152604081019190915260600190565b901515815260200190565b602081016109548284611e25565b6020808252601a908201527f42504f423a3a696e697469616c697a6520464f5242494444454e000000000000604082015260600190565b6020808252601a908201527f42504f423a3a4f6e6c792053656c6c65722f437573746f6d6572000000000000604082015260600190565b60208082526017908201527f42504f423a3a4f72646572206e6f742075706461746564000000000000000000604082015260600190565b6020808252601b908201527f42504f423a3a4f6e6c7920437573746f6d657220616c6c6f7765640000000000604082015260600190565b60208082526005908201526422a92927a960d91b604082015260600190565b60208082526017908201527f42504f423a3a4f72646572206e6f742063726561746564000000000000000000604082015260600190565b60208082526024908201527f42504f423a3a5f7061796d656e7453797374656d5549442061646472657373206040820152630697320360e41b606082015260800190565b60208082526023908201527f5472616e7366657248656c7065723a3a7472616e7366657246726f6d206661696040820152621b195960ea1b606082015260800190565b6020808252602f908201527f42504f423a3a6164644f72646572202d5f6f726465724944203d3d206f72646560408201526e1c925110dbdd5b9d0819985a5b1959608a1b606082015260800190565b60208082526021908201527f42504f423a3a7365745374617465202d20436f756c64206e6f742075706461746040820152606560f81b606082015260800190565b6020808252601c908201527f42504f423a3a5f6d65646961746f722061646472657373206973203000000000604082015260600190565b6020808252818101527f42504f423a3a4f6e6c7920616c6c6f776564205061796d656e7453797374656d604082015260600190565b6020808252602d908201527f42504f423a3a6f6e6c7945787065637465645374617465202d204e6f7420657860408201526c7065637465642073746174757360981b606082015260800190565b6020808252601b908201527f42504f423a3a4f6e6c79204d65646961746f7220616c6c6f7765640000000000604082015260600190565b6000610160820190506122e3828451611e18565b60208301516122f56020840182611e18565b5060408301516123086040840182611e18565b506060830151606083015260808301516123256080840182611e25565b5060a083015160a083015260c083015160c083015260e083015160e083015261010080840151818401525061012080840151818401525061014080840151818401525092915050565b90815260200190565b6000821982111561238a5761238a6123ae565b500190565b60008160001904831182151516156123a9576123a96123ae565b500290565b634e487b7160e01b600052601160045260246000fdfe8d6988262c489dfcdbbad6c4b99878b18aa3037a1efc6fe268c3c9e1cbca6665a26469706673582212206b22a26c02453fbbf7c936d45abbb6a34b344b329cc597094aff58ac285dbef264736f6c63430008000033a26469706673582212208417faeba62d4fae558ec707030bfb6829224dbf21874774cbb825257f66b97164736f6c63430008000033",
  "linkReferences": {},
  "deployedLinkReferences": {}
}