{
  "_format": "hh-sol-artifact-1",
  "contractName": "BlueberryPayRouter",
  "sourceName": "src/contracts/BlueberryPayRouter.sol",
  "abi": [
    {
      "inputs": [
        {
          "internalType": "address",
          "name": "_factory",
          "type": "address"
        },
        {
          "internalType": "address",
          "name": "_WETH",
          "type": "address"
        }
      ],
      "stateMutability": "nonpayable",
      "type": "constructor"
    },
    {
      "anonymous": false,
      "inputs": [
        {
          "indexed": true,
          "internalType": "address",
          "name": "from",
          "type": "address"
        },
        {
          "indexed": false,
          "internalType": "uint256",
          "name": "amount",
          "type": "uint256"
        }
      ],
      "name": "Deposit",
      "type": "event"
    },
    {
      "anonymous": false,
      "inputs": [
        {
          "indexed": true,
          "internalType": "address",
          "name": "from",
          "type": "address"
        },
        {
          "indexed": false,
          "internalType": "address",
          "name": "to",
          "type": "address"
        },
        {
          "indexed": false,
          "internalType": "uint256",
          "name": "amount",
          "type": "uint256"
        }
      ],
      "name": "Transfer",
      "type": "event"
    },
    {
      "anonymous": false,
      "inputs": [
        {
          "indexed": true,
          "internalType": "address",
          "name": "to",
          "type": "address"
        },
        {
          "indexed": false,
          "internalType": "uint256",
          "name": "amount",
          "type": "uint256"
        }
      ],
      "name": "Withdrawal",
      "type": "event"
    },
    {
      "inputs": [],
      "name": "WETH",
      "outputs": [
        {
          "internalType": "address",
          "name": "",
          "type": "address"
        }
      ],
      "stateMutability": "view",
      "type": "function"
    },
    {
      "inputs": [
        {
          "internalType": "address",
          "name": "_token",
          "type": "address"
        },
        {
          "internalType": "address",
          "name": "_orderBookUID",
          "type": "address"
        },
        {
          "internalType": "address",
          "name": "_to",
          "type": "address"
        },
        {
          "internalType": "uint256",
          "name": "_amount",
          "type": "uint256"
        },
        {
          "internalType": "uint256",
          "name": "_orderID",
          "type": "uint256"
        },
        {
          "internalType": "bytes32[2]",
          "name": "_title",
          "type": "bytes32[2]"
        },
        {
          "internalType": "enum IBlueberryPayOrderBook.Status",
          "name": "_status",
          "type": "uint8"
        },
        {
          "internalType": "uint256",
          "name": "_maturityTime",
          "type": "uint256"
        }
      ],
      "name": "addOrder",
      "outputs": [],
      "stateMutability": "nonpayable",
      "type": "function"
    },
    {
      "inputs": [
        {
          "internalType": "address",
          "name": "_token",
          "type": "address"
        },
        {
          "internalType": "address",
          "name": "_orderBookUID",
          "type": "address"
        },
        {
          "internalType": "uint256",
          "name": "_orderID",
          "type": "uint256"
        },
        {
          "internalType": "enum IBlueberryPayOrderBook.Status",
          "name": "_status",
          "type": "uint8"
        }
      ],
      "name": "cancelOrder",
      "outputs": [
        {
          "internalType": "bool",
          "name": "success",
          "type": "bool"
        }
      ],
      "stateMutability": "nonpayable",
      "type": "function"
    },
    {
      "inputs": [
        {
          "internalType": "address",
          "name": "_token",
          "type": "address"
        },
        {
          "internalType": "address",
          "name": "_orderBookUID",
          "type": "address"
        },
        {
          "internalType": "uint256",
          "name": "_orderID",
          "type": "uint256"
        }
      ],
      "name": "confirmReceiptTheCustomer",
      "outputs": [
        {
          "internalType": "bool",
          "name": "success",
          "type": "bool"
        }
      ],
      "stateMutability": "nonpayable",
      "type": "function"
    },
    {
      "inputs": [
        {
          "internalType": "address",
          "name": "_paymentSytemOwner",
          "type": "address"
        },
        {
          "internalType": "uint256",
          "name": "_paymentSytemID",
          "type": "uint256"
        }
      ],
      "name": "createPaymentSystem",
      "outputs": [
        {
          "internalType": "address",
          "name": "paymentSystemUID",
          "type": "address"
        },
        {
          "internalType": "address",
          "name": "orderBookUID",
          "type": "address"
        }
      ],
      "stateMutability": "nonpayable",
      "type": "function"
    },
    {
      "inputs": [],
      "name": "factory",
      "outputs": [
        {
          "internalType": "address",
          "name": "",
          "type": "address"
        }
      ],
      "stateMutability": "view",
      "type": "function"
    },
    {
      "inputs": [
        {
          "internalType": "address",
          "name": "_orderBookUID",
          "type": "address"
        },
        {
          "internalType": "uint256",
          "name": "_orderID",
          "type": "uint256"
        }
      ],
      "name": "getOrderAmount",
      "outputs": [
        {
          "internalType": "uint256",
          "name": "",
          "type": "uint256"
        }
      ],
      "stateMutability": "view",
      "type": "function"
    },
    {
      "inputs": [
        {
          "internalType": "address",
          "name": "_orderBookUID",
          "type": "address"
        },
        {
          "internalType": "uint256",
          "name": "_orderID",
          "type": "uint256"
        }
      ],
      "name": "getOrderStatus",
      "outputs": [
        {
          "internalType": "enum IBlueberryPayOrderBook.Status",
          "name": "status",
          "type": "uint8"
        }
      ],
      "stateMutability": "view",
      "type": "function"
    },
    {
      "inputs": [
        {
          "internalType": "address",
          "name": "_token",
          "type": "address"
        },
        {
          "internalType": "address",
          "name": "_to",
          "type": "address"
        },
        {
          "internalType": "address",
          "name": "_paymentSystemUID",
          "type": "address"
        },
        {
          "internalType": "uint256",
          "name": "_orderID",
          "type": "uint256"
        },
        {
          "internalType": "enum IBlueberryPayOrderBook.Status",
          "name": "_status",
          "type": "uint8"
        },
        {
          "internalType": "bytes32[2]",
          "name": "_title",
          "type": "bytes32[2]"
        },
        {
          "internalType": "uint256",
          "name": "_maturityTime",
          "type": "uint256"
        },
        {
          "internalType": "uint256",
          "name": "_deadline",
          "type": "uint256"
        }
      ],
      "name": "sendAVAXToSellerWithEscrow",
      "outputs": [],
      "stateMutability": "payable",
      "type": "function"
    },
    {
      "inputs": [
        {
          "internalType": "address",
          "name": "_token",
          "type": "address"
        },
        {
          "internalType": "address payable",
          "name": "_to",
          "type": "address"
        },
        {
          "internalType": "address",
          "name": "_orderBookUID",
          "type": "address"
        },
        {
          "internalType": "uint256",
          "name": "_orderID",
          "type": "uint256"
        },
        {
          "internalType": "bytes32[2]",
          "name": "_title",
          "type": "bytes32[2]"
        },
        {
          "internalType": "uint256",
          "name": "_deadline",
          "type": "uint256"
        }
      ],
      "name": "sendAVAXWithoutEscrow",
      "outputs": [],
      "stateMutability": "payable",
      "type": "function"
    },
    {
      "inputs": [
        {
          "internalType": "address",
          "name": "_token",
          "type": "address"
        },
        {
          "internalType": "address",
          "name": "_to",
          "type": "address"
        },
        {
          "internalType": "address",
          "name": "_paymentSystemUID",
          "type": "address"
        },
        {
          "internalType": "uint256",
          "name": "_amount",
          "type": "uint256"
        },
        {
          "internalType": "uint256",
          "name": "_orderID",
          "type": "uint256"
        },
        {
          "internalType": "bytes32[2]",
          "name": "_title",
          "type": "bytes32[2]"
        },
        {
          "internalType": "enum IBlueberryPayOrderBook.Status",
          "name": "_status",
          "type": "uint8"
        },
        {
          "internalType": "uint256",
          "name": "_maturityTime",
          "type": "uint256"
        },
        {
          "internalType": "uint256",
          "name": "_deadline",
          "type": "uint256"
        }
      ],
      "name": "sendTokenToSellerWithEscrow",
      "outputs": [],
      "stateMutability": "nonpayable",
      "type": "function"
    },
    {
      "inputs": [
        {
          "internalType": "address",
          "name": "_token",
          "type": "address"
        },
        {
          "internalType": "address",
          "name": "_to",
          "type": "address"
        },
        {
          "internalType": "address",
          "name": "_orderBookUID",
          "type": "address"
        },
        {
          "internalType": "uint256",
          "name": "_orderID",
          "type": "uint256"
        },
        {
          "internalType": "uint256",
          "name": "_amount",
          "type": "uint256"
        },
        {
          "internalType": "bytes32[2]",
          "name": "_title",
          "type": "bytes32[2]"
        },
        {
          "internalType": "uint256",
          "name": "_deadline",
          "type": "uint256"
        }
      ],
      "name": "sendTokenWithoutEscrow",
      "outputs": [
        {
          "internalType": "bool",
          "name": "",
          "type": "bool"
        }
      ],
      "stateMutability": "nonpayable",
      "type": "function"
    },
    {
      "inputs": [
        {
          "internalType": "address",
          "name": "_token",
          "type": "address"
        },
        {
          "internalType": "address",
          "name": "_from",
          "type": "address"
        },
        {
          "internalType": "address",
          "name": "_to",
          "type": "address"
        },
        {
          "internalType": "address",
          "name": "_orderBookUID",
          "type": "address"
        },
        {
          "internalType": "uint256",
          "name": "_orderID",
          "type": "uint256"
        },
        {
          "internalType": "enum IBlueberryPayOrderBook.Status",
          "name": "_state",
          "type": "uint8"
        }
      ],
      "name": "setState",
      "outputs": [
        {
          "internalType": "bool",
          "name": "success",
          "type": "bool"
        }
      ],
      "stateMutability": "nonpayable",
      "type": "function"
    },
    {
      "inputs": [
        {
          "internalType": "address",
          "name": "_token",
          "type": "address"
        },
        {
          "internalType": "address",
          "name": "_seller",
          "type": "address"
        },
        {
          "internalType": "address",
          "name": "_paymentSystemUID",
          "type": "address"
        },
        {
          "internalType": "address",
          "name": "_orderBookUID",
          "type": "address"
        },
        {
          "internalType": "uint256",
          "name": "_orderID",
          "type": "uint256"
        },
        {
          "internalType": "bytes32[2]",
          "name": "_title",
          "type": "bytes32[2]"
        },
        {
          "internalType": "uint256",
          "name": "_deadline",
          "type": "uint256"
        }
      ],
      "name": "withDrawCustomer",
      "outputs": [],
      "stateMutability": "nonpayable",
      "type": "function"
    },
    {
      "inputs": [
        {
          "internalType": "address",
          "name": "_token",
          "type": "address"
        },
        {
          "internalType": "address",
          "name": "_seller",
          "type": "address"
        },
        {
          "internalType": "address",
          "name": "_paymentSystemUID",
          "type": "address"
        },
        {
          "internalType": "address",
          "name": "_orderBookUID",
          "type": "address"
        },
        {
          "internalType": "uint256",
          "name": "_orderID",
          "type": "uint256"
        },
        {
          "internalType": "bytes32[2]",
          "name": "_title",
          "type": "bytes32[2]"
        },
        {
          "internalType": "uint256",
          "name": "_deadline",
          "type": "uint256"
        }
      ],
      "name": "withDrawCustomerAVAX",
      "outputs": [],
      "stateMutability": "nonpayable",
      "type": "function"
    },
    {
      "inputs": [
        {
          "internalType": "address",
          "name": "_token",
          "type": "address"
        },
        {
          "internalType": "address",
          "name": "_paymentSystemUID",
          "type": "address"
        },
        {
          "internalType": "uint256",
          "name": "_feeAmount",
          "type": "uint256"
        },
        {
          "internalType": "uint256",
          "name": "_deadline",
          "type": "uint256"
        }
      ],
      "name": "withDrawFees",
      "outputs": [],
      "stateMutability": "nonpayable",
      "type": "function"
    },
    {
      "inputs": [
        {
          "internalType": "address",
          "name": "_paymentSystemUID",
          "type": "address"
        },
        {
          "internalType": "uint256",
          "name": "_feeAmount",
          "type": "uint256"
        },
        {
          "internalType": "uint256",
          "name": "_deadline",
          "type": "uint256"
        }
      ],
      "name": "withDrawFeesAVAX",
      "outputs": [],
      "stateMutability": "nonpayable",
      "type": "function"
    },
    {
      "inputs": [
        {
          "internalType": "address",
          "name": "_token",
          "type": "address"
        },
        {
          "internalType": "address",
          "name": "_paymentSystemUID",
          "type": "address"
        },
        {
          "internalType": "address",
          "name": "_orderBookUID",
          "type": "address"
        },
        {
          "internalType": "uint256",
          "name": "_orderID",
          "type": "uint256"
        },
        {
          "internalType": "uint256",
          "name": "_deadline",
          "type": "uint256"
        }
      ],
      "name": "withDrawSeller",
      "outputs": [],
      "stateMutability": "nonpayable",
      "type": "function"
    },
    {
      "inputs": [
        {
          "internalType": "address",
          "name": "_token",
          "type": "address"
        },
        {
          "internalType": "address",
          "name": "_paymentSystemUID",
          "type": "address"
        },
        {
          "internalType": "address",
          "name": "_orderBookUID",
          "type": "address"
        },
        {
          "internalType": "uint256",
          "name": "_orderID",
          "type": "uint256"
        },
        {
          "internalType": "uint256",
          "name": "_deadline",
          "type": "uint256"
        }
      ],
      "name": "withDrawSellerAVAX",
      "outputs": [],
      "stateMutability": "nonpayable",
      "type": "function"
    }
  ],
  "bytecode": "0x60c0604052600180553480156200001557600080fd5b5060405162002bbc38038062002bbc8339810160408190526200003891620000cf565b6001600160a01b0382166200006a5760405162461bcd60e51b8152600401620000619062000106565b60405180910390fd5b6001600160a01b038116620000935760405162461bcd60e51b815260040162000061906200013d565b6001600160601b0319606092831b8116608052911b1660a05262000174565b80516001600160a01b0381168114620000ca57600080fd5b919050565b60008060408385031215620000e2578182fd5b620000ed83620000b2565b9150620000fd60208401620000b2565b90509250929050565b6020808252601a908201527f4250523a3a5f666163746f727920616464726573732069732030000000000000604082015260600190565b60208082526017908201527f4250523a3a5f5745544820616464726573732069732030000000000000000000604082015260600190565b60805160601c60a05160601c6129f9620001c36000396000818161055901528181610623015261108701526000818161091d01528181610da601528181610e5d01526111e001526129f96000f3fe6080604052600436106101145760003560e01c80638ba1d001116100a0578063c16667d911610064578063c16667d91461030e578063c45a01551461032e578063c49f100314610343578063f3db4e2114610363578063f4fc13f61461037657610114565b80638ba1d001146102445780639b46049b14610272578063a80a3baa14610292578063ad5c4648146102bf578063bbf047a0146102e157610114565b8063507e8f9f116100e7578063507e8f9f146101a45780635b5601e5146101c457806372f7f9a6146101e4578063747538951461020457806384161b671461022457610114565b806316ba81cb146101195780631f19855f1461013b57806338927df91461014e5780633a51d00d14610184575b600080fd5b34801561012557600080fd5b50610139610134366004611ec2565b610396565b005b610139610149366004611ddd565b610481565b34801561015a57600080fd5b5061016e610169366004612089565b6106c6565b60405161017b91906123d1565b60405180910390f35b34801561019057600080fd5b5061016e61019f366004611fe6565b610774565b3480156101b057600080fd5b506101396101bf3660046120db565b6108db565b3480156101d057600080fd5b5061016e6101df366004612049565b6109eb565b3480156101f057600080fd5b506101396101ff366004611ce4565b610a96565b34801561021057600080fd5b5061013961021f366004611e68565b610bee565b34801561023057600080fd5b5061013961023f36600461214b565b610d42565b34801561025057600080fd5b5061026461025f366004612120565b610d90565b60405161017b929190612261565b34801561027e57600080fd5b5061013961028d366004611e68565b610ef2565b34801561029e57600080fd5b506102b26102ad366004612120565b610ffb565b60405161017b91906123dc565b3480156102cb57600080fd5b506102d4611085565b60405161017b9190612234565b3480156102ed57600080fd5b506103016102fc366004612120565b6110a9565b60405161017b919061291e565b34801561031a57600080fd5b5061016e610329366004611d65565b61112a565b34801561033a57600080fd5b506102d46111de565b34801561034f57600080fd5b5061013961035e366004611ce4565b611202565b610139610371366004611c78565b61133e565b34801561038257600080fd5b50610139610391366004611f4f565b6114bd565b336001600160a01b03871614156103c85760405162461bcd60e51b81526004016103bf906125e2565b60405180910390fd5b6040516316ba81cb60e01b81526000906001600160a01b038916906316ba81cb90610405908c9033908c908c908c908c908c908c906004016122f2565b602060405180830381600087803b15801561041f57600080fd5b505af1158015610433573d6000803e3d6000fd5b505050506040513d601f19601f82011682018060405250810190610457919061217f565b9050806104765760405162461bcd60e51b81526004016103bf906124d8565b505050505050505050565b80428110156104a25760405162461bcd60e51b81526004016103bf90612755565b336001600160a01b03891614156104cb5760405162461bcd60e51b81526004016103bf906128dd565b600034116104eb5760405162461bcd60e51b81526004016103bf9061241d565b60405163fab72e8960e01b81526001600160a01b0388169063fab72e8990610525908c9033908d9034908d908c908e908d906004016122f2565b600060405180830381600087803b15801561053f57600080fd5b505af1158015610553573d6000803e3d6000fd5b505050507f00000000000000000000000000000000000000000000000000000000000000006001600160a01b031663d0e30db0346040518263ffffffff1660e01b81526004016000604051808303818588803b1580156105b257600080fd5b505af11580156105c6573d6000803e3d6000fd5b5050505050336001600160a01b03167fe1fffcc4923d04b559f4d29a8bfc6cda04eb5b0d3c460751c2402c5c5cc9109c34604051610604919061291e565b60405180910390a260405163a9059cbb60e01b81526001600160a01b037f0000000000000000000000000000000000000000000000000000000000000000169063a9059cbb9061065a908a903490600401612248565b602060405180830381600087803b15801561067457600080fd5b505af1158015610688573d6000803e3d6000fd5b505050506040513d601f19601f820116820180604052508101906106ac919061217f565b61047657634e487b7160e01b600052600160045260246000fd5b6040516338927df960e01b81526000906001600160a01b038516906338927df9906106fb908890339088908890600401612373565b602060405180830381600087803b15801561071557600080fd5b505af1158015610729573d6000803e3d6000fd5b505050506040513d601f19601f8201168201806040525081019061074d919061217f565b90508061076c5760405162461bcd60e51b81526004016103bf90612665565b949350505050565b60006001546001146107985760405162461bcd60e51b81526004016103bf90612782565b600060015581428110156107be5760405162461bcd60e51b81526004016103bf90612755565b88336001600160a01b038a1614156107e85760405162461bcd60e51b81526004016103bf9061285c565b600086116108085760405162461bcd60e51b81526004016103bf90612574565b61081d6001600160a01b038216338b896115b7565b60405163b99d53b760e01b81526001600160a01b0389169063b99d53b790610853908d9033908e908d908d908d9060040161227b565b600060405180830381600087803b15801561086d57600080fd5b505af1158015610881573d6000803e3d6000fd5b50505050336001600160a01b03167fddf252ad1be2c89b69c2b068fc378daa952ba7f163c4a11628f55a4df523b3ef8a886040516108c0929190612248565b60405180910390a25050600180805598975050505050505050565b80428110156108fc5760405162461bcd60e51b81526004016103bf90612755565b336109195760405162461bcd60e51b81526004016103bf906127e3565b60007f00000000000000000000000000000000000000000000000000000000000000006001600160a01b031663017e7e586040518163ffffffff1660e01b8152600401602060405180830381600087803b15801561097657600080fd5b505af115801561098a573d6000803e3d6000fd5b505050506040513d601f19601f820116820180604052508101906109ae9190611c23565b9050336001600160a01b038216146109d85760405162461bcd60e51b81526004016103bf90612506565b6109e386868661160f565b505050505050565b604051635b5601e560e01b81526000906001600160a01b03841690635b5601e590610a1e9087903390879060040161234f565b602060405180830381600087803b158015610a3857600080fd5b505af1158015610a4c573d6000803e3d6000fd5b505050506040513d601f19601f82011682018060405250810190610a70919061217f565b905080610a8f5760405162461bcd60e51b81526004016103bf90612665565b9392505050565b8042811015610ab75760405162461bcd60e51b81526004016103bf90612755565b33610ad45760405162461bcd60e51b81526004016103bf9061262e565b6040516305df823d60e51b81526000906001600160a01b0387169063bbf047a090610b059033908990600401612248565b60206040518083038186803b158015610b1d57600080fd5b505afa158015610b31573d6000803e3d6000fd5b505050506040513d601f19601f82011682018060405250810190610b5591906121bb565b905060006064610b66836063612947565b610b709190612927565b905060008111610b925760405162461bcd60e51b81526004016103bf906125ab565b610ba18a338b8b8a868b6116b1565b336001600160a01b03167f7fcf532c15f0a6db0bd6d0e038bea71d30d808c7d98cb3bf7268a95bf5081b6582604051610bda919061291e565b60405180910390a250505050505050505050565b8042811015610c0f5760405162461bcd60e51b81526004016103bf90612755565b33610c2c5760405162461bcd60e51b81526004016103bf9061262e565b6040516305df823d60e51b81526000906001600160a01b0386169063bbf047a090610c5d9033908890600401612248565b60206040518083038186803b158015610c7557600080fd5b505afa158015610c89573d6000803e3d6000fd5b505050506040513d601f19601f82011682018060405250810190610cad91906121bb565b905060006064610cbe836063612947565b610cc89190612927565b905060008111610cea5760405162461bcd60e51b81526004016103bf906125ab565b610cf78833898885611765565b336001600160a01b03167f7fcf532c15f0a6db0bd6d0e038bea71d30d808c7d98cb3bf7268a95bf5081b6582604051610d30919061291e565b60405180910390a25050505050505050565b8042811015610d635760405162461bcd60e51b81526004016103bf90612755565b33610d805760405162461bcd60e51b81526004016103bf906127e3565b610d8a848461180b565b50505050565b60405163b1c9418360e01b8152600090819081907f00000000000000000000000000000000000000000000000000000000000000006001600160a01b03169063b1c9418390610de59088908890600401612248565b602060405180830381600087803b158015610dff57600080fd5b505af1158015610e13573d6000803e3d6000fd5b505050506040513d601f19601f82011682018060405250810190610e379190611c23565b6001600160a01b03161415610eeb57604051638ba1d00160e01b81526001600160a01b037f00000000000000000000000000000000000000000000000000000000000000001690638ba1d00190610e949087908790600401612248565b6040805180830381600087803b158015610ead57600080fd5b505af1158015610ec1573d6000803e3d6000fd5b505050506040513d601f19601f82011682018060405250810190610ee59190611c3f565b90925090505b9250929050565b8042811015610f135760405162461bcd60e51b81526004016103bf90612755565b33610f305760405162461bcd60e51b81526004016103bf9061262e565b6040516305df823d60e51b81526000906001600160a01b0386169063bbf047a090610f619033908890600401612248565b60206040518083038186803b158015610f7957600080fd5b505afa158015610f8d573d6000803e3d6000fd5b505050506040513d601f19601f82011682018060405250810190610fb191906121bb565b905060006064610fc2836063612947565b610fcc9190612927565b905060008111610fee5760405162461bcd60e51b81526004016103bf906125ab565b610cf788338988856118b0565b6040516354051dd560e11b81526000906001600160a01b0384169063a80a3baa9061102c9033908690600401612248565b60206040518083038186803b15801561104457600080fd5b505afa158015611058573d6000803e3d6000fd5b505050506040513d601f19601f8201168201806040525081019061107c919061219f565b90505b92915050565b7f000000000000000000000000000000000000000000000000000000000000000081565b600080836001600160a01b031663bbf047a033856040518363ffffffff1660e01b81526004016110da929190612248565b60206040518083038186803b1580156110f257600080fd5b505afa158015611106573d6000803e3d6000fd5b505050506040513d601f19601f8201168201806040525081019061076c91906121bb565b60405163c16667d960e01b81526000906001600160a01b0385169063c16667d990611163908a9033908b908b908a908a906004016122b6565b602060405180830381600087803b15801561117d57600080fd5b505af1158015611191573d6000803e3d6000fd5b505050506040513d601f19601f820116820180604052508101906111b5919061217f565b9050806111d45760405162461bcd60e51b81526004016103bf90612665565b9695505050505050565b7f000000000000000000000000000000000000000000000000000000000000000081565b80428110156112235760405162461bcd60e51b81526004016103bf90612755565b336112405760405162461bcd60e51b81526004016103bf9061262e565b6040516305df823d60e51b81526000906001600160a01b0387169063bbf047a0906112719033908990600401612248565b60206040518083038186803b15801561128957600080fd5b505afa15801561129d573d6000803e3d6000fd5b505050506040513d601f19601f820116820180604052508101906112c191906121bb565b9050600081116112e35760405162461bcd60e51b81526004016103bf906125ab565b6112f289338a8a89868a611956565b336001600160a01b03167f7fcf532c15f0a6db0bd6d0e038bea71d30d808c7d98cb3bf7268a95bf5081b658260405161132b919061291e565b60405180910390a2505050505050505050565b6001546001146113605760405162461bcd60e51b81526004016103bf90612782565b600060015580428110156113865760405162461bcd60e51b81526004016103bf90612755565b336001600160a01b03871614156113af5760405162461bcd60e51b81526004016103bf9061285c565b600034116113cf5760405162461bcd60e51b81526004016103bf906126cc565b6040516001600160a01b038716903480156108fc02916000818181858888f19350505050158015611404573d6000803e3d6000fd5b5060405163b99d53b760e01b81526001600160a01b0386169063b99d53b79061143b908a9033908b908a9034908b9060040161227b565b600060405180830381600087803b15801561145557600080fd5b505af1158015611469573d6000803e3d6000fd5b50505050336001600160a01b03167fddf252ad1be2c89b69c2b068fc378daa952ba7f163c4a11628f55a4df523b3ef87346040516114a8929190612248565b60405180910390a25050600180555050505050565b80428110156114de5760405162461bcd60e51b81526004016103bf90612755565b89336001600160a01b038b1614156115085760405162461bcd60e51b81526004016103bf906128dd565b600088116115285760405162461bcd60e51b81526004016103bf9061241d565b60405163fab72e8960e01b81526001600160a01b038a169063fab72e8990611562908e9033908f908e908e908e908e908e906004016122f2565b600060405180830381600087803b15801561157c57600080fd5b505af1158015611590573d6000803e3d6000fd5b506115aa925050506001600160a01b038216338b8b6115b7565b5050505050505050505050565b610d8a846323b872dd60e01b8585856040516024016115d89392919061234f565b60408051601f198184030181529190526020810180516001600160e01b03166001600160e01b031990931692909217909152611a00565b604051633831508d60e21b81526000906001600160a01b0384169063e0c54234906116409087908690600401612248565b602060405180830381600087803b15801561165a57600080fd5b505af115801561166e573d6000803e3d6000fd5b505050506040513d601f19601f82011682018060405250810190611692919061217f565b905080610d8a5760405162461bcd60e51b81526004016103bf90612460565b6040516359aa23f760e01b81526000906001600160a01b038616906359aa23f7906116ea908b908b908b908a908a908a9060040161227b565b602060405180830381600087803b15801561170457600080fd5b505af1158015611718573d6000803e3d6000fd5b505050506040513d601f19601f8201168201806040525081019061173c919061217f565b90508061175b5760405162461bcd60e51b81526004016103bf90612497565b5050505050505050565b604051633c1f9e9f60e21b81526000906001600160a01b0385169063f07e7a7c9061179a9089908990889088906004016123a8565b602060405180830381600087803b1580156117b457600080fd5b505af11580156117c8573d6000803e3d6000fd5b505050506040513d601f19601f820116820180604052508101906117ec919061217f565b9050806109e35760405162461bcd60e51b81526004016103bf9061271e565b604051633dd00e2160e11b81526000906001600160a01b03841690637ba01c429061183a90859060040161291e565b602060405180830381600087803b15801561185457600080fd5b505af1158015611868573d6000803e3d6000fd5b505050506040513d601f19601f8201168201806040525081019061188c919061217f565b9050806118ab5760405162461bcd60e51b81526004016103bf9061269c565b505050565b6040516318dc3e5360e21b81526000906001600160a01b03851690636370f94c906118e59089908990889088906004016123a8565b602060405180830381600087803b1580156118ff57600080fd5b505af1158015611913573d6000803e3d6000fd5b505050506040513d601f19601f82011682018060405250810190611937919061217f565b9050806109e35760405162461bcd60e51b81526004016103bf906127ac565b6040516304146fa360e31b81526000906001600160a01b038616906320a37d189061198f908b908b908b908a908a908a9060040161227b565b602060405180830381600087803b1580156119a957600080fd5b505af11580156119bd573d6000803e3d6000fd5b505050506040513d601f19601f820116820180604052508101906119e1919061217f565b90508061175b5760405162461bcd60e51b81526004016103bf9061253d565b6000611a55826040518060400160405280602081526020017f5361666545524332303a206c6f772d6c6576656c2063616c6c206661696c6564815250856001600160a01b0316611a8f9092919063ffffffff16565b8051909150156118ab5780806020019051810190611a73919061217f565b6118ab5760405162461bcd60e51b81526004016103bf90612893565b606061076c848460008585611aa385611b38565b611abf5760405162461bcd60e51b81526004016103bf90612825565b600080866001600160a01b03168587604051611adb9190612218565b60006040518083038185875af1925050503d8060008114611b18576040519150601f19603f3d011682016040523d82523d6000602084013e611b1d565b606091505b5091509150611b2d828286611b69565b979650505050505050565b600080826001600160a01b0316803b806020016040519081016040528181526000908060200190933c511192915050565b60608315611b78575081610a8f565b825115611b885782518084602001fd5b8160405162461bcd60e51b81526004016103bf91906123ea565b600082601f830112611bb2578081fd5b6040516040810181811067ffffffffffffffff82111715611be157634e487b7160e01b83526041600452602483fd5b8060405250808385604086011115611bf7578384fd5b835b6002811015611c18578135835260209283019290910190600101611bf9565b509195945050505050565b600060208284031215611c34578081fd5b8151610a8f8161299e565b60008060408385031215611c51578081fd5b8251611c5c8161299e565b6020840151909250611c6d8161299e565b809150509250929050565b60008060008060008060e08789031215611c90578182fd5b8635611c9b8161299e565b95506020870135611cab8161299e565b94506040870135611cbb8161299e565b935060608701359250611cd18860808901611ba2565b915060c087013590509295509295509295565b6000806000806000806000610100888a031215611cff578081fd5b8735611d0a8161299e565b96506020880135611d1a8161299e565b95506040880135611d2a8161299e565b94506060880135611d3a8161299e565b935060808801359250611d508960a08a01611ba2565b915060e0880135905092959891949750929550565b60008060008060008060c08789031215611d7d578182fd5b8635611d888161299e565b95506020870135611d988161299e565b94506040870135611da88161299e565b93506060870135611db88161299e565b92506080870135915060a0870135611dcf816129b6565b809150509295509295509295565b600080600080600080600080610120898b031215611df9578081fd5b8835611e048161299e565b97506020890135611e148161299e565b96506040890135611e248161299e565b9550606089013594506080890135611e3b816129b6565b9350611e4a8a60a08b01611ba2565b925060e0890135915061010089013590509295985092959890939650565b600080600080600060a08688031215611e7f578081fd5b8535611e8a8161299e565b94506020860135611e9a8161299e565b93506040860135611eaa8161299e565b94979396509394606081013594506080013592915050565b600080600080600080600080610120898b031215611ede578182fd5b8835611ee98161299e565b97506020890135611ef98161299e565b96506040890135611f098161299e565b95506060890135945060808901359350611f268a60a08b01611ba2565b925060e0890135611f36816129b6565b8092505061010089013590509295985092959890939650565b60008060008060008060008060006101408a8c031215611f6d578283fd5b8935611f788161299e565b985060208a0135611f888161299e565b975060408a0135611f988161299e565b965060608a0135955060808a01359450611fb58b60a08c01611ba2565b935060e08a0135611fc5816129b6565b809350506101008a013591506101208a013590509295985092959850929598565b6000806000806000806000610100888a031215612001578081fd5b873561200c8161299e565b9650602088013561201c8161299e565b9550604088013561202c8161299e565b94506060880135935060808801359250611d508960a08a01611ba2565b60008060006060848603121561205d578081fd5b83356120688161299e565b925060208401356120788161299e565b929592945050506040919091013590565b6000806000806080858703121561209e578182fd5b84356120a98161299e565b935060208501356120b98161299e565b92506040850135915060608501356120d0816129b6565b939692955090935050565b600080600080608085870312156120f0578182fd5b84356120fb8161299e565b9350602085013561210b8161299e565b93969395505050506040820135916060013590565b60008060408385031215612132578182fd5b823561213d8161299e565b946020939093013593505050565b60008060006060848603121561215f578081fd5b833561216a8161299e565b95602085013595506040909401359392505050565b600060208284031215612190578081fd5b81518015158114610a8f578182fd5b6000602082840312156121b0578081fd5b8151610a8f816129b6565b6000602082840312156121cc578081fd5b5051919050565b8060005b6002811015610d8a5781518452602093840193909101906001016121d7565b6006811061221457634e487b7160e01b600052602160045260246000fd5b9052565b6000825161222a818460208701612972565b9190910192915050565b6001600160a01b0391909116815260200190565b6001600160a01b03929092168252602082015260400190565b6001600160a01b0392831681529116602082015260400190565b6001600160a01b038781168252868116602083015285166040820152606081018490526080810183905260e08101611b2d60a08301846121d3565b6001600160a01b03878116825286811660208301528581166040830152841660608201526080810183905260c08101611b2d60a08301846121f6565b6001600160a01b0389811682528881166020830152871660408201526060810186905260808101859052610120810161232e60a08301866121d3565b61233b60e08301856121f6565b826101008301529998505050505050505050565b6001600160a01b039384168152919092166020820152604081019190915260600190565b6001600160a01b03858116825284166020820152604081018390526080810161239f60608301846121f6565b95945050505050565b6001600160a01b0394851681529290931660208301526040820152606081019190915260800190565b901515815260200190565b6020810161107f82846121f6565b6000602082528251806020840152612409816040850160208701612972565b601f01601f19169190910160400192915050565b60208082526023908201527f4250523a3a73656e64546f6b656e20616d6f756e742073686f756c642062652060408201526203e20360ec1b606082015260800190565b60208082526019908201527f4250523a3a5f776974684472617746656573206661696c656400000000000000604082015260600190565b60208082526021908201527f4250523a3a5f7769746844726177437573746f6d657241564158206661696c656040820152601960fa1b606082015260800190565b6020808252601490820152731094148e8e93dc99195c881b9bdd08185919195960621b604082015260600190565b6020808252601b908201527f4250523a3a776974684472617746656573204e6f74206f776e65720000000000604082015260600190565b6020808252601d908201527f4250523a3a5f7769746844726177437573746f6d6572206661696c6564000000604082015260600190565b6020808252601d908201527f4250523a3a73656e64546f6b656e20616d6f756e74206e6f74203e2030000000604082015260600190565b6020808252601d908201527f4250523a3a7769746844726177204e6f206f7264657220657869737473000000604082015260600190565b6020808252602c908201527f4250523a3a6164644f72646572202d204e6f7420616c6c6f77656420746f207360408201526b32b732103cb7bab939b2b63360a11b606082015260800190565b6020808252601e908201527f4250523a3a7769746844726177204164647272657373206973207a65726f0000604082015260600190565b60208082526019908201527f4250523a3a436f756c64206e6f74207365742053746174757300000000000000604082015260600190565b602080825260169082015275084a0a47474beeed2e8d088e4c2ee8ccacae682ac82b60531b604082015260600190565b60208082526032908201527f4250523a3a73656e6473656e6441564158576974686f7574457363726f77546f60408201527106b656e20616d6f756e74206e6f74203e20360741b606082015260800190565b6020808252601f908201527f4250523a3a5f776974684472617753656c6c657241564158206661696c656400604082015260600190565b6020808252601390820152721094148e8e995b9cdd5c994811561412549151606a1b604082015260600190565b60208082526010908201526f109414ce8e9b1bd8dac81313d0d2d15160821b604082015260600190565b6020808252601b908201527f4250523a3a5f776974684472617753656c6c6572206661696c65640000000000604082015260600190565b60208082526022908201527f4250523a3a776974684472617746656573204164647272657373206973207a65604082015261726f60f01b606082015260800190565b6020808252601d908201527f416464726573733a2063616c6c20746f206e6f6e2d636f6e7472616374000000604082015260600190565b6020808252601e908201527f4250523a3a4e6f7720616c6c6f7765642073656e6420796f757273656c660000604082015260600190565b6020808252602a908201527f5361666545524332303a204552433230206f7065726174696f6e20646964206e6040820152691bdd081cdd58d8d9595960b21b606082015260800190565b60208082526021908201527f4250523a3a4e6f7720616c6c6f77656420746f2073656e6420796f757273656c6040820152603360f91b606082015260800190565b90815260200190565b60008261294257634e487b7160e01b81526012600452602481fd5b500490565b600081600019048311821515161561296d57634e487b7160e01b81526011600452602481fd5b500290565b60005b8381101561298d578181015183820152602001612975565b83811115610d8a5750506000910152565b6001600160a01b03811681146129b357600080fd5b50565b600681106129b357600080fdfea2646970667358221220e6e06b4c9009cdfbaa9eb4ffd419ab241bf49efae22085c84b1fab5ef47b077464736f6c63430008000033",
  "linkReferences": {},
  "deployedLinkReferences": {}
}