{
  "_format": "hh-sol-artifact-1",
  "contractName": "BlueberryPayOrderBook",
  "sourceName": "src/contracts/BlueberryPayOrderBook.sol",
  "abi": [
    {
      "inputs": [],
      "stateMutability": "nonpayable",
      "type": "constructor"
    },
    {
      "anonymous": false,
      "inputs": [
        {
          "indexed": true,
          "internalType": "address",
          "name": "paymentSystemUID",
          "type": "address"
        },
        {
          "indexed": true,
          "internalType": "address",
          "name": "orderBookUID",
          "type": "address"
        },
        {
          "indexed": false,
          "internalType": "address",
          "name": "mediator",
          "type": "address"
        }
      ],
      "name": "OrderBookInitialised",
      "type": "event"
    },
    {
      "anonymous": false,
      "inputs": [
        {
          "indexed": false,
          "internalType": "address",
          "name": "orderBookUID",
          "type": "address"
        },
        {
          "indexed": false,
          "internalType": "address",
          "name": "_seller",
          "type": "address"
        },
        {
          "indexed": false,
          "internalType": "address",
          "name": "_customer",
          "type": "address"
        },
        {
          "indexed": true,
          "internalType": "uint256",
          "name": "_orderID",
          "type": "uint256"
        },
        {
          "indexed": true,
          "internalType": "enum IBlueberryPayOrderBook.Status",
          "name": "_status",
          "type": "uint8"
        },
        {
          "indexed": false,
          "internalType": "address",
          "name": "_token",
          "type": "address"
        },
        {
          "indexed": false,
          "internalType": "uint256",
          "name": "_amount",
          "type": "uint256"
        },
        {
          "indexed": false,
          "internalType": "bytes32",
          "name": "_title0",
          "type": "bytes32"
        },
        {
          "indexed": false,
          "internalType": "bytes32",
          "name": "_title1",
          "type": "bytes32"
        },
        {
          "indexed": false,
          "internalType": "uint256",
          "name": "openingTime",
          "type": "uint256"
        },
        {
          "indexed": false,
          "internalType": "uint256",
          "name": "closeTime",
          "type": "uint256"
        },
        {
          "indexed": false,
          "internalType": "uint256",
          "name": "maturityTime",
          "type": "uint256"
        }
      ],
      "name": "OrderCreated",
      "type": "event"
    },
    {
      "anonymous": false,
      "inputs": [
        {
          "indexed": false,
          "internalType": "address",
          "name": "orderBookUID",
          "type": "address"
        },
        {
          "indexed": false,
          "internalType": "address",
          "name": "_seller",
          "type": "address"
        },
        {
          "indexed": false,
          "internalType": "address",
          "name": "_customer",
          "type": "address"
        },
        {
          "indexed": true,
          "internalType": "uint256",
          "name": "_orderID",
          "type": "uint256"
        },
        {
          "indexed": true,
          "internalType": "enum IBlueberryPayOrderBook.Status",
          "name": "_status",
          "type": "uint8"
        },
        {
          "indexed": false,
          "internalType": "address",
          "name": "_token",
          "type": "address"
        },
        {
          "indexed": false,
          "internalType": "uint256",
          "name": "_amount",
          "type": "uint256"
        },
        {
          "indexed": false,
          "internalType": "bytes32",
          "name": "_title0",
          "type": "bytes32"
        },
        {
          "indexed": false,
          "internalType": "bytes32",
          "name": "_title1",
          "type": "bytes32"
        },
        {
          "indexed": false,
          "internalType": "uint256",
          "name": "openingTime",
          "type": "uint256"
        },
        {
          "indexed": false,
          "internalType": "uint256",
          "name": "closeTime",
          "type": "uint256"
        },
        {
          "indexed": false,
          "internalType": "uint256",
          "name": "maturityTime",
          "type": "uint256"
        }
      ],
      "name": "OrderUpdated",
      "type": "event"
    },
    {
      "inputs": [
        {
          "internalType": "address",
          "name": "_token",
          "type": "address"
        },
        {
          "internalType": "address",
          "name": "_from",
          "type": "address"
        },
        {
          "internalType": "address",
          "name": "_to",
          "type": "address"
        },
        {
          "internalType": "uint256",
          "name": "_amount",
          "type": "uint256"
        },
        {
          "internalType": "uint256",
          "name": "_orderID",
          "type": "uint256"
        },
        {
          "internalType": "bytes32[2]",
          "name": "_title",
          "type": "bytes32[2]"
        },
        {
          "internalType": "enum IBlueberryPayOrderBook.Status",
          "name": "_status",
          "type": "uint8"
        },
        {
          "internalType": "uint256",
          "name": "_maturitiyTime",
          "type": "uint256"
        }
      ],
      "name": "addOrder",
      "outputs": [
        {
          "internalType": "bool",
          "name": "success",
          "type": "bool"
        }
      ],
      "stateMutability": "nonpayable",
      "type": "function"
    },
    {
      "inputs": [
        {
          "internalType": "address",
          "name": "_token",
          "type": "address"
        },
        {
          "internalType": "address",
          "name": "_from",
          "type": "address"
        },
        {
          "internalType": "uint256",
          "name": "_orderID",
          "type": "uint256"
        },
        {
          "internalType": "enum IBlueberryPayOrderBook.Status",
          "name": "_status",
          "type": "uint8"
        }
      ],
      "name": "cancelOrder",
      "outputs": [
        {
          "internalType": "bool",
          "name": "",
          "type": "bool"
        }
      ],
      "stateMutability": "nonpayable",
      "type": "function"
    },
    {
      "inputs": [
        {
          "internalType": "address",
          "name": "_token",
          "type": "address"
        },
        {
          "internalType": "address",
          "name": "_from",
          "type": "address"
        },
        {
          "internalType": "uint256",
          "name": "_orderID",
          "type": "uint256"
        }
      ],
      "name": "confirmReceiptTheCustomer",
      "outputs": [
        {
          "internalType": "bool",
          "name": "",
          "type": "bool"
        }
      ],
      "stateMutability": "nonpayable",
      "type": "function"
    },
    {
      "inputs": [
        {
          "internalType": "address",
          "name": "_token",
          "type": "address"
        },
        {
          "internalType": "address",
          "name": "_from",
          "type": "address"
        },
        {
          "internalType": "uint256",
          "name": "_orderID",
          "type": "uint256"
        },
        {
          "internalType": "enum IBlueberryPayOrderBook.Status",
          "name": "_status",
          "type": "uint8"
        }
      ],
      "name": "deleteOrder",
      "outputs": [
        {
          "internalType": "bool",
          "name": "status",
          "type": "bool"
        }
      ],
      "stateMutability": "nonpayable",
      "type": "function"
    },
    {
      "inputs": [],
      "name": "factory",
      "outputs": [
        {
          "internalType": "address",
          "name": "",
          "type": "address"
        }
      ],
      "stateMutability": "view",
      "type": "function"
    },
    {
      "inputs": [
        {
          "internalType": "address",
          "name": "",
          "type": "address"
        },
        {
          "internalType": "uint256",
          "name": "",
          "type": "uint256"
        }
      ],
      "name": "getOrder",
      "outputs": [
        {
          "internalType": "address",
          "name": "token",
          "type": "address"
        },
        {
          "internalType": "address",
          "name": "seller",
          "type": "address"
        },
        {
          "internalType": "address",
          "name": "customer",
          "type": "address"
        },
        {
          "internalType": "uint256",
          "name": "orderID",
          "type": "uint256"
        },
        {
          "internalType": "enum IBlueberryPayOrderBook.Status",
          "name": "status",
          "type": "uint8"
        },
        {
          "internalType": "uint256",
          "name": "amount",
          "type": "uint256"
        },
        {
          "internalType": "bytes32",
          "name": "_title0",
          "type": "bytes32"
        },
        {
          "internalType": "bytes32",
          "name": "_title1",
          "type": "bytes32"
        },
        {
          "internalType": "uint256",
          "name": "openingTime",
          "type": "uint256"
        },
        {
          "internalType": "uint256",
          "name": "closingTime",
          "type": "uint256"
        },
        {
          "internalType": "uint256",
          "name": "maturityTime",
          "type": "uint256"
        }
      ],
      "stateMutability": "view",
      "type": "function"
    },
    {
      "inputs": [
        {
          "internalType": "address",
          "name": "_from",
          "type": "address"
        },
        {
          "internalType": "uint256",
          "name": "_orderID",
          "type": "uint256"
        }
      ],
      "name": "getOrderAmount",
      "outputs": [
        {
          "internalType": "uint256",
          "name": "",
          "type": "uint256"
        }
      ],
      "stateMutability": "view",
      "type": "function"
    },
    {
      "inputs": [
        {
          "internalType": "address",
          "name": "_from",
          "type": "address"
        },
        {
          "internalType": "uint256",
          "name": "_orderID",
          "type": "uint256"
        }
      ],
      "name": "getOrderData",
      "outputs": [
        {
          "components": [
            {
              "internalType": "address",
              "name": "token",
              "type": "address"
            },
            {
              "internalType": "address",
              "name": "seller",
              "type": "address"
            },
            {
              "internalType": "address",
              "name": "customer",
              "type": "address"
            },
            {
              "internalType": "uint256",
              "name": "orderID",
              "type": "uint256"
            },
            {
              "internalType": "enum IBlueberryPayOrderBook.Status",
              "name": "status",
              "type": "uint8"
            },
            {
              "internalType": "uint256",
              "name": "amount",
              "type": "uint256"
            },
            {
              "internalType": "bytes32",
              "name": "_title0",
              "type": "bytes32"
            },
            {
              "internalType": "bytes32",
              "name": "_title1",
              "type": "bytes32"
            },
            {
              "internalType": "uint256",
              "name": "openingTime",
              "type": "uint256"
            },
            {
              "internalType": "uint256",
              "name": "closingTime",
              "type": "uint256"
            },
            {
              "internalType": "uint256",
              "name": "maturityTime",
              "type": "uint256"
            }
          ],
          "internalType": "struct IBlueberryPayOrderBook.Order",
          "name": "",
          "type": "tuple"
        }
      ],
      "stateMutability": "view",
      "type": "function"
    },
    {
      "inputs": [],
      "name": "getOrderIDCount",
      "outputs": [
        {
          "internalType": "uint256",
          "name": "orderID",
          "type": "uint256"
        }
      ],
      "stateMutability": "view",
      "type": "function"
    },
    {
      "inputs": [
        {
          "internalType": "address",
          "name": "_from",
          "type": "address"
        },
        {
          "internalType": "uint256",
          "name": "_orderID",
          "type": "uint256"
        }
      ],
      "name": "getOrderStatus",
      "outputs": [
        {
          "internalType": "enum IBlueberryPayOrderBook.Status",
          "name": "status",
          "type": "uint8"
        }
      ],
      "stateMutability": "view",
      "type": "function"
    },
    {
      "inputs": [
        {
          "internalType": "address",
          "name": "_paymentSystemUID",
          "type": "address"
        },
        {
          "internalType": "address",
          "name": "_mediator",
          "type": "address"
        }
      ],
      "name": "initializeOrderBook",
      "outputs": [],
      "stateMutability": "nonpayable",
      "type": "function"
    },
    {
      "inputs": [
        {
          "internalType": "address",
          "name": "_token",
          "type": "address"
        },
        {
          "internalType": "address",
          "name": "_from",
          "type": "address"
        },
        {
          "internalType": "address",
          "name": "_to",
          "type": "address"
        },
        {
          "internalType": "uint256",
          "name": "_orderID",
          "type": "uint256"
        },
        {
          "internalType": "uint256",
          "name": "_amount",
          "type": "uint256"
        },
        {
          "internalType": "bytes32[2]",
          "name": "_title",
          "type": "bytes32[2]"
        }
      ],
      "name": "keepTrackOrderCreated",
      "outputs": [],
      "stateMutability": "nonpayable",
      "type": "function"
    },
    {
      "inputs": [],
      "name": "mediator",
      "outputs": [
        {
          "internalType": "address",
          "name": "",
          "type": "address"
        }
      ],
      "stateMutability": "view",
      "type": "function"
    },
    {
      "inputs": [],
      "name": "paymentSystemUID",
      "outputs": [
        {
          "internalType": "address",
          "name": "",
          "type": "address"
        }
      ],
      "stateMutability": "view",
      "type": "function"
    },
    {
      "inputs": [
        {
          "internalType": "address",
          "name": "_token",
          "type": "address"
        },
        {
          "internalType": "address",
          "name": "_from",
          "type": "address"
        },
        {
          "internalType": "address",
          "name": "_to",
          "type": "address"
        },
        {
          "internalType": "uint256",
          "name": "_amount",
          "type": "uint256"
        },
        {
          "internalType": "uint256",
          "name": "_orderID",
          "type": "uint256"
        },
        {
          "internalType": "bytes32[2]",
          "name": "_title",
          "type": "bytes32[2]"
        }
      ],
      "name": "sendTokenWithoutEscrow",
      "outputs": [
        {
          "internalType": "bool",
          "name": "state",
          "type": "bool"
        }
      ],
      "stateMutability": "nonpayable",
      "type": "function"
    },
    {
      "inputs": [
        {
          "internalType": "address",
          "name": "_token",
          "type": "address"
        },
        {
          "internalType": "address",
          "name": "_owner",
          "type": "address"
        },
        {
          "internalType": "address",
          "name": "_from",
          "type": "address"
        },
        {
          "internalType": "address",
          "name": "_to",
          "type": "address"
        },
        {
          "internalType": "uint256",
          "name": "_orderID",
          "type": "uint256"
        },
        {
          "internalType": "enum IBlueberryPayOrderBook.Status",
          "name": "_status",
          "type": "uint8"
        }
      ],
      "name": "setState",
      "outputs": [
        {
          "internalType": "bool",
          "name": "success",
          "type": "bool"
        }
      ],
      "stateMutability": "nonpayable",
      "type": "function"
    },
    {
      "inputs": [
        {
          "internalType": "address",
          "name": "_token",
          "type": "address"
        },
        {
          "internalType": "address",
          "name": "_from",
          "type": "address"
        },
        {
          "internalType": "uint256",
          "name": "_orderID",
          "type": "uint256"
        }
      ],
      "name": "setStateCompleted",
      "outputs": [
        {
          "internalType": "bool",
          "name": "",
          "type": "bool"
        }
      ],
      "stateMutability": "nonpayable",
      "type": "function"
    }
  ],
  "bytecode": "0x60a0604052603c600255600160045534801561001a57600080fd5b5033606081901b60805261241a610043600039600081816113ec0152611419015261241a6000f3fe608060405234801561001057600080fd5b506004361061010b5760003560e01c8063a80a3baa116100a2578063c16667d911610071578063c16667d91461022a578063c45a01551461023d578063c70382d814610245578063d6b264a614610258578063edb25841146102605761010b565b8063a80a3baa146101cd578063b4ffafa7146101ed578063b99d53b714610202578063bbf047a0146102175761010b565b80634c909039116100de5780634c9090391461017f5780635b5601e5146101925780636d0501f6146101a55780637ed7f23c146101ba5761010b565b806301f71d8a1461011057806316ba81cb1461013957806332c13e191461014c57806338927df91461016c575b600080fd5b61012361011e366004611d7c565b61028a565b6040516101309190611f7d565b60405180910390f35b610123610147366004611cbe565b6105ad565b61015f61015a366004611dc8565b61085f565b60405161013091906122cf565b61012361017a366004611d7c565b61095a565b61012361018d366004611c64565b610b1e565b6101236101a0366004611d41565b610bac565b6101ad610e31565b6040516101309190611e80565b6101236101c8366004611d41565b610e40565b6101e06101db366004611dc8565b610e83565b6040516101309190611f88565b6101f5610ff2565b604051610130919061236e565b610215610210366004611c64565b610ff8565b005b6101f5610225366004611dc8565b61118c565b610123610238366004611bf8565b6111b7565b6101ad6113ea565b610215610253366004611bc6565b61140e565b6101ad611515565b61027361026e366004611dc8565b611524565b6040516101309b9a99989796959493929190611eed565b6001600160a01b038084166000908152600560208181526040808420878552825280842081516101608101835281548716815260018201548716938101939093526002810154909516908201526003840154606082015260048401549293849391929091608084019160ff9091169081111561031657634e487b7160e01b600052602160045260246000fd5b600581111561033557634e487b7160e01b600052602160045260246000fd5b81526020016005820154815260200160068201548152602001600782015481526020016008820154815260200160098201548152602001600a82015481525050905082600581111561039757634e487b7160e01b600052602160045260246000fd5b846000805160206123c583398151915230846020015185604001518b8760a001518860c001518960e001518a61010001518b61012001518c61014001516040516103ea9a99989796959493929190611e94565b60405180910390a36005600082602001516001600160a01b03166001600160a01b031681526020019081526020016000206000858152602001908152602001600020600080820160006101000a8154906001600160a01b0302191690556001820160006101000a8154906001600160a01b0302191690556002820160006101000a8154906001600160a01b03021916905560038201600090556004820160006101000a81549060ff021916905560058201600090556006820160009055600782016000905560088201600090556009820160009055600a82016000905550506005600082604001516001600160a01b03166001600160a01b031681526020019081526020016000206000858152602001908152602001600020600080820160006101000a8154906001600160a01b0302191690556001820160006101000a8154906001600160a01b0302191690556002820160006101000a8154906001600160a01b03021916905560038201600090556004820160006101000a81549060ff021916905560058201600090556006820160009055600782016000905560088201600090556009820160009055600a82016000905550506001915050949350505050565b60006105b98886611597565b1561075a576105ca888887866115d8565b9050806105f25760405162461bcd60e51b81526004016105e990612004565b60405180910390fd5b6001600160a01b0380891660009081526005602081815260408084208a855282528084208151610160810183528154871681526001820154871693810193909352600281015490951690820152600384015460608201526004840154929390929091608084019160ff169081111561067a57634e487b7160e01b600052602160045260246000fd5b600581111561069957634e487b7160e01b600052602160045260246000fd5b81526020016005820154815260200160068201548152602001600782015481526020016008820154815260200160098201548152602001600a8201548152505090508360058111156106fb57634e487b7160e01b600052602160045260246000fd5b866000805160206123c5833981519152308c8c8f8d8c600060200201518d600160200201518a61010001518b61012001518c61014001516040516107489a99989796959493929190611e94565b60405180910390a36001915050610853565b600354851461077b5760405162461bcd60e51b81526004016105e99061214f565b61078b898989888a898989611694565b9050806107aa5760405162461bcd60e51b81526004016105e990612091565b6001600360008282546107bd9190612377565b9091555083905060058111156107e357634e487b7160e01b600052602160045260246000fd5b857f37c6225f4982e8c1352662a6dc83d76aaf4600bfe7b0de64c09a7a509d10d11c308b8b8e8c8b600060200201518c60016020020151426108268d600161238f565b6108309042612377565b8d6040516108479a99989796959493929190611e94565b60405180910390a35060015b98975050505050505050565b610867611ac0565b6001600160a01b0380841660009081526005602081815260408084208785528252928390208351610160810185528154861681526001820154861692810192909252600281015490941692810192909252600383015460608301526004830154919291608084019160ff909116908111156108f257634e487b7160e01b600052602160045260246000fd5b600581111561091157634e487b7160e01b600052602160045260246000fd5b81526020016005820154815260200160068201548152602001600782015481526020016008820154815260200160098201548152602001600a8201548152505090505b92915050565b6000838382806001600160a01b03841660009081526005602081815260408084208785529091529091206004015460ff16908111156109a957634e487b7160e01b600052602160045260246000fd5b146109c65760405162461bcd60e51b81526004016105e99061224b565b6001600160a01b0380881660009081526005602081815260408084208b8552825280842081516101608101835281548716815260018201548716938101939093526002810154909516908201526003840154606082015260048401548b948b94939091608084019160ff90911690811115610a5157634e487b7160e01b600052602160045260246000fd5b6005811115610a7057634e487b7160e01b600052602160045260246000fd5b81526020016005820154815260200160068201548152602001600782015481526020016008820154815260200160098201548152602001600a82015481525050905060006001600160a01b031681602001516001600160a01b0316141580610ae4575060408101516001600160a01b031615155b610b005760405162461bcd60e51b81526004016105e990611fcd565b610b0c8b8b8b8b61028a565b5060019b9a5050505050505050505050565b6000600160036000828254610b339190612377565b90915550610b459050878787876119d0565b6003837f37c6225f4982e8c1352662a6dc83d76aaf4600bfe7b0de64c09a7a509d10d11c3089898c8a89600060200201518a60016020020151424242604051610b979a99989796959493929190611e94565b60405180910390a35060019695505050505050565b600082826001806001600160a01b03841660009081526005602081815260408084208785529091529091206004015460ff1690811115610bfc57634e487b7160e01b600052602160045260246000fd5b14610c195760405162461bcd60e51b81526004016105e99061224b565b6001600160a01b0380871660009081526005602090815260408083208984529091529020600201548791879116610c625760405162461bcd60e51b81526004016105e99061203b565b6001600160a01b0380891660009081526005602081815260408084208c855282528084208151610160810183528154871681526001820154871693810193909352600281015490951690820152600384015460608201526004840154929390929091608084019160ff1690811115610cea57634e487b7160e01b600052602160045260246000fd5b6005811115610d0957634e487b7160e01b600052602160045260246000fd5b815260058281015460208084019190915260068401546040808501919091526007850154606085015260088501546080850152600985015460a0850152600a9094015460c090930192909252838201516001600160a01b031660009081529082528281208c825290915220600401805491925060029160ff191660018302179055506040808201516001600160a01b03166000908152600560209081528282208b835290522060040180546002919060ff191660018302179055506002886000805160206123c583398151915230846020015185604001518f8760a001518860c001518960e001518a61010001518b61012001518c6101400151604051610e199a99989796959493929190611e94565b60405180910390a35060019998505050505050505050565b6001546001600160a01b031681565b600080546001600160a01b03163314610e6b5760405162461bcd60e51b81526004016105e990612216565b610e78848484600361028a565b506001949350505050565b6001600160a01b0380831660009081526005602081815260408084208685528252808420815161016081018352815487168152600182015487169381019390935260028101549095169082015260038401546060820152600484015492938693869386939291608084019160ff90911690811115610f1157634e487b7160e01b600052602160045260246000fd5b6005811115610f3057634e487b7160e01b600052602160045260246000fd5b81526020016005820154815260200160068201548152602001600782015481526020016008820154815260200160098201548152602001600a82015481525050905060006001600160a01b031681602001516001600160a01b0316141580610fa4575060408101516001600160a01b031615155b610fc05760405162461bcd60e51b81526004016105e990611fcd565b505050506001600160a01b03919091166000908152600560209081526040808320938352929052206004015460ff1690565b60035490565b60035483146110195760405162461bcd60e51b81526004016105e990612072565b60016003600082825461102c9190612377565b90915550506001600160a01b03808616600090815260056020818152604080842088855282528084208151610160810183528154871681526001820154871693810193909352600281015490951690820152600384015460608201526004840154929390929091608084019160ff16908111156110b957634e487b7160e01b600052602160045260246000fd5b60058111156110d857634e487b7160e01b600052602160045260246000fd5b815260058201546020820152600682015460408201526007820154606082015260088201546080820152600982015460a0820152600a9091015460c09091015290506003847f37c6225f4982e8c1352662a6dc83d76aaf4600bfe7b0de64c09a7a509d10d11c3089898c8989600060200201518a600160200201518a61010001518b61012001518c610140015160405161117b9a99989796959493929190611e94565b60405180910390a350505050505050565b6001600160a01b03919091166000908152600560208181526040808420948452939052919020015490565b60015460009086906001600160a01b038083169116146111e95760405162461bcd60e51b81526004016105e990612298565b6001600160a01b03808716600090815260056020818152604080842089855282528084208151610160810183528154871681526001820154871693810193909352600281015490951690820152600384015460608201526004840154929390929091608084019160ff169081111561127157634e487b7160e01b600052602160045260246000fd5b600581111561129057634e487b7160e01b600052602160045260246000fd5b81526020016005820154815260200160068201548152602001600782015481526020016008820154815260200160098201548152602001600a82015481525050905060006112e0888888886115d8565b9050806112ff5760405162461bcd60e51b81526004016105e99061219e565b84600581111561131f57634e487b7160e01b600052602160045260246000fd5b866000805160206123c583398151915230856020015186604001518f8860a001518960c001518a60e001518b61010001518c61012001518d61014001516040516113729a99989796959493929190611e94565b60405180910390a3600485600581111561139c57634e487b7160e01b600052602160045260246000fd5b14806113c7575060038560058111156113c557634e487b7160e01b600052602160045260246000fd5b145b156113da576113d88a89888861028a565b505b5060019998505050505050505050565b7f000000000000000000000000000000000000000000000000000000000000000081565b336001600160a01b037f000000000000000000000000000000000000000000000000000000000000000016146114565760405162461bcd60e51b81526004016105e990611f96565b6001600160a01b03821661147c5760405162461bcd60e51b81526004016105e9906120c8565b6001600160a01b0381166114a25760405162461bcd60e51b81526004016105e9906121df565b600080546001600160a01b038085166001600160a01b03199283161792839055600180548583169316929092179182905560405130938216927ffaa26e48302948bffb5b7c83ab8db0b25572feabec87e37f1795c1eb7d16dbdc9261150992911690611e80565b60405180910390a35050565b6000546001600160a01b031681565b6005602081815260009384526040808520909152918352912080546001820154600283015460038401546004850154958501546006860154600787015460088801546009890154600a909901546001600160a01b039889169a978916999890961697949660ff169593949293919290918b565b6001600160a01b038281166000908152600560209081526040808320858452909152812060020154909116156115cf57506001610954565b50600092915050565b6001600160a01b038416600090815260056020818152604080842086855290915282206004018054849260ff1990911690600190849081111561162b57634e487b7160e01b600052602160045260246000fd5b02179055506001600160a01b03841660009081526005602081815260408084208785529091529091206004018054849260ff1990911690600190849081111561168457634e487b7160e01b600052602160045260246000fd5b0217905550600195945050505050565b60006040518061016001604052808a6001600160a01b03168152602001896001600160a01b03168152602001886001600160a01b031681526020018781526020018460058111156116f557634e487b7160e01b600052602160045260246000fd5b815260208101879052855160408201526060018560016020020151815260200142815260200160025484611729919061238f565b6117339042612377565b815260209081018490526001600160a01b03808b166000908152600580845260408083208c8452855291829020855181549085166001600160a01b031991821617825594860151600180830180549287169288169290921790915592860151600282018054919095169516949094179092556060840151600384015560808401516004840180549193909260ff19909216919084908111156117e557634e487b7160e01b600052602160045260246000fd5b021790555060a0820151816005015560c0820151816006015560e082015181600701556101008201518160080155610120820151816009015561014082015181600a01559050506040518061016001604052808a6001600160a01b03168152602001896001600160a01b03168152602001886001600160a01b0316815260200187815260200184600581111561188b57634e487b7160e01b600052602160045260246000fd5b8152602081018790528551604082015260600185600160200201518152602001428152602001600254846118bf919061238f565b6118c99042612377565b815260209081018490526001600160a01b03808a166000908152600580845260408083208c8452855291829020855181549085166001600160a01b031991821617825594860151600180830180549287169288169290921790915592860151600282018054919095169516949094179092556060840151600384015560808401516004840180549193909260ff199092169190849081111561197b57634e487b7160e01b600052602160045260246000fd5b021790555060a0820151600582015560c0820151600682015560e082015160078201556101008201516008820155610120820151600982015561014090910151600a9091015550600198975050505050505050565b600080856001600160a01b03166323b872dd8686866040516024016119f793929190611f59565b6040516020818303038152906040529060e01b6020820180516001600160e01b038381831617835250505050604051611a309190611e47565b6000604051808303816000865af19150503d8060008114611a6d576040519150601f19603f3d011682016040523d82523d6000602084013e611a72565b606091505b5091509150818015611a9c575080511580611a9c575080806020019051810190611a9c9190611df1565b611ab85760405162461bcd60e51b81526004016105e99061210c565b505050505050565b604080516101608101825260008082526020820181905291810182905260608101829052906080820190815260006020820181905260408201819052606082018190526080820181905260a0820181905260c09091015290565b80356001600160a01b0381168114611b3157600080fd5b919050565b600082601f830112611b46578081fd5b6040516040810181811067ffffffffffffffff82111715611b7557634e487b7160e01b83526041600452602483fd5b8060405250808385604086011115611b8b578384fd5b835b6002811015611bac578135835260209283019290910190600101611b8d565b509195945050505050565b803560068110611b3157600080fd5b60008060408385031215611bd8578182fd5b611be183611b1a565b9150611bef60208401611b1a565b90509250929050565b60008060008060008060c08789031215611c10578182fd5b611c1987611b1a565b9550611c2760208801611b1a565b9450611c3560408801611b1a565b9350611c4360608801611b1a565b925060808701359150611c5860a08801611bb7565b90509295509295509295565b60008060008060008060e08789031215611c7c578182fd5b611c8587611b1a565b9550611c9360208801611b1a565b9450611ca160408801611b1a565b93506060870135925060808701359150611c588860a08901611b36565b600080600080600080600080610120898b031215611cda578182fd5b611ce389611b1a565b9750611cf160208a01611b1a565b9650611cff60408a01611b1a565b95506060890135945060808901359350611d1c8a60a08b01611b36565b9250611d2a60e08a01611bb7565b915061010089013590509295985092959890939650565b600080600060608486031215611d55578283fd5b611d5e84611b1a565b9250611d6c60208501611b1a565b9150604084013590509250925092565b60008060008060808587031215611d91578384fd5b611d9a85611b1a565b9350611da860208601611b1a565b925060408501359150611dbd60608601611bb7565b905092959194509250565b60008060408385031215611dda578182fd5b611de383611b1a565b946020939093013593505050565b600060208284031215611e02578081fd5b81518015158114611e11578182fd5b9392505050565b6001600160a01b03169052565b60068110611e4357634e487b7160e01b600052602160045260246000fd5b9052565b60008251815b81811015611e675760208186018101518583015201611e4d565b81811115611e755782828501525b509190910192915050565b6001600160a01b0391909116815260200190565b6001600160a01b039a8b168152988a1660208a01529689166040890152949097166060870152608086019290925260a085015260c084015260e08301939093526101008201929092526101208101919091526101400190565b6001600160a01b038c811682528b811660208301528a166040820152606081018990526101608101611f22608083018a611e25565b8760a08301528660c08301528560e08301528461010083015283610120830152826101408301529c9b505050505050505050505050565b6001600160a01b039384168152919092166020820152604081019190915260600190565b901515815260200190565b602081016109548284611e25565b6020808252601a908201527f42504f423a3a696e697469616c697a6520464f5242494444454e000000000000604082015260600190565b6020808252601a908201527f42504f423a3a4f6e6c792053656c6c65722f437573746f6d6572000000000000604082015260600190565b60208082526017908201527f42504f423a3a4f72646572206e6f742075706461746564000000000000000000604082015260600190565b6020808252601b908201527f42504f423a3a4f6e6c7920437573746f6d657220616c6c6f7765640000000000604082015260600190565b60208082526005908201526422a92927a960d91b604082015260600190565b60208082526017908201527f42504f423a3a4f72646572206e6f742063726561746564000000000000000000604082015260600190565b60208082526024908201527f42504f423a3a5f7061796d656e7453797374656d5549442061646472657373206040820152630697320360e41b606082015260800190565b60208082526023908201527f5472616e7366657248656c7065723a3a7472616e7366657246726f6d206661696040820152621b195960ea1b606082015260800190565b6020808252602f908201527f42504f423a3a6164644f72646572202d5f6f726465724944203d3d206f72646560408201526e1c925110dbdd5b9d0819985a5b1959608a1b606082015260800190565b60208082526021908201527f42504f423a3a7365745374617465202d20436f756c64206e6f742075706461746040820152606560f81b606082015260800190565b6020808252601c908201527f42504f423a3a5f6d65646961746f722061646472657373206973203000000000604082015260600190565b6020808252818101527f42504f423a3a4f6e6c7920616c6c6f776564205061796d656e7453797374656d604082015260600190565b6020808252602d908201527f42504f423a3a6f6e6c7945787065637465645374617465202d204e6f7420657860408201526c7065637465642073746174757360981b606082015260800190565b6020808252601b908201527f42504f423a3a4f6e6c79204d65646961746f7220616c6c6f7765640000000000604082015260600190565b6000610160820190506122e3828451611e18565b60208301516122f56020840182611e18565b5060408301516123086040840182611e18565b506060830151606083015260808301516123256080840182611e25565b5060a083015160a083015260c083015160c083015260e083015160e083015261010080840151818401525061012080840151818401525061014080840151818401525092915050565b90815260200190565b6000821982111561238a5761238a6123ae565b500190565b60008160001904831182151516156123a9576123a96123ae565b500290565b634e487b7160e01b600052601160045260246000fdfe8d6988262c489dfcdbbad6c4b99878b18aa3037a1efc6fe268c3c9e1cbca6665a26469706673582212206b22a26c02453fbbf7c936d45abbb6a34b344b329cc597094aff58ac285dbef264736f6c63430008000033",
  "linkReferences": {},
  "deployedLinkReferences": {}
}