{
  "_format": "hh-sol-artifact-1",
  "contractName": "BlueberryPaymentSystem",
  "sourceName": "src/contracts/BlueberryPaymentSystem.sol",
  "abi": [
    {
      "inputs": [],
      "stateMutability": "nonpayable",
      "type": "constructor"
    },
    {
      "anonymous": false,
      "inputs": [
        {
          "indexed": true,
          "internalType": "address",
          "name": "owner",
          "type": "address"
        },
        {
          "indexed": true,
          "internalType": "address",
          "name": "spender",
          "type": "address"
        },
        {
          "indexed": false,
          "internalType": "uint256",
          "name": "value",
          "type": "uint256"
        }
      ],
      "name": "Approval",
      "type": "event"
    },
    {
      "anonymous": false,
      "inputs": [
        {
          "indexed": true,
          "internalType": "address",
          "name": "_to",
          "type": "address"
        },
        {
          "indexed": false,
          "internalType": "uint256",
          "name": "_orderAmount",
          "type": "uint256"
        },
        {
          "indexed": true,
          "internalType": "uint256",
          "name": "_orderID",
          "type": "uint256"
        }
      ],
      "name": "Burn",
      "type": "event"
    },
    {
      "anonymous": false,
      "inputs": [
        {
          "indexed": true,
          "internalType": "address",
          "name": "_to",
          "type": "address"
        },
        {
          "indexed": false,
          "internalType": "uint256",
          "name": "_orderAmount",
          "type": "uint256"
        },
        {
          "indexed": true,
          "internalType": "uint256",
          "name": "_orderID",
          "type": "uint256"
        }
      ],
      "name": "Mint",
      "type": "event"
    },
    {
      "anonymous": false,
      "inputs": [
        {
          "indexed": true,
          "internalType": "address",
          "name": "_paymentSystemUID",
          "type": "address"
        },
        {
          "indexed": true,
          "internalType": "address",
          "name": "orderBookUID",
          "type": "address"
        },
        {
          "indexed": false,
          "internalType": "address",
          "name": "paymentSystemOwner",
          "type": "address"
        }
      ],
      "name": "PaymentSystemInitialised",
      "type": "event"
    },
    {
      "anonymous": false,
      "inputs": [
        {
          "indexed": true,
          "internalType": "address",
          "name": "from",
          "type": "address"
        },
        {
          "indexed": true,
          "internalType": "address",
          "name": "to",
          "type": "address"
        },
        {
          "indexed": false,
          "internalType": "uint256",
          "name": "value",
          "type": "uint256"
        }
      ],
      "name": "Transfer",
      "type": "event"
    },
    {
      "inputs": [],
      "name": "DOMAIN_SEPARATOR",
      "outputs": [
        {
          "internalType": "bytes32",
          "name": "",
          "type": "bytes32"
        }
      ],
      "stateMutability": "view",
      "type": "function"
    },
    {
      "inputs": [],
      "name": "PERMIT_TYPEHASH",
      "outputs": [
        {
          "internalType": "bytes32",
          "name": "",
          "type": "bytes32"
        }
      ],
      "stateMutability": "view",
      "type": "function"
    },
    {
      "inputs": [],
      "name": "WETH",
      "outputs": [
        {
          "internalType": "address",
          "name": "",
          "type": "address"
        }
      ],
      "stateMutability": "view",
      "type": "function"
    },
    {
      "inputs": [
        {
          "internalType": "address",
          "name": "",
          "type": "address"
        },
        {
          "internalType": "address",
          "name": "",
          "type": "address"
        }
      ],
      "name": "allowance",
      "outputs": [
        {
          "internalType": "uint256",
          "name": "",
          "type": "uint256"
        }
      ],
      "stateMutability": "view",
      "type": "function"
    },
    {
      "inputs": [
        {
          "internalType": "address",
          "name": "spender",
          "type": "address"
        },
        {
          "internalType": "uint256",
          "name": "value",
          "type": "uint256"
        }
      ],
      "name": "approve",
      "outputs": [
        {
          "internalType": "bool",
          "name": "",
          "type": "bool"
        }
      ],
      "stateMutability": "nonpayable",
      "type": "function"
    },
    {
      "inputs": [
        {
          "internalType": "address",
          "name": "",
          "type": "address"
        }
      ],
      "name": "balanceOf",
      "outputs": [
        {
          "internalType": "uint256",
          "name": "",
          "type": "uint256"
        }
      ],
      "stateMutability": "view",
      "type": "function"
    },
    {
      "inputs": [
        {
          "internalType": "address",
          "name": "_token",
          "type": "address"
        },
        {
          "internalType": "address",
          "name": "_from",
          "type": "address"
        },
        {
          "internalType": "address",
          "name": "_to",
          "type": "address"
        },
        {
          "internalType": "uint256",
          "name": "_orderID",
          "type": "uint256"
        },
        {
          "internalType": "uint256",
          "name": "_orderAmount",
          "type": "uint256"
        }
      ],
      "name": "burnCustomer",
      "outputs": [
        {
          "internalType": "bool",
          "name": "",
          "type": "bool"
        }
      ],
      "stateMutability": "nonpayable",
      "type": "function"
    },
    {
      "inputs": [
        {
          "internalType": "address",
          "name": "_token",
          "type": "address"
        },
        {
          "internalType": "address",
          "name": "_from",
          "type": "address"
        },
        {
          "internalType": "address",
          "name": "_to",
          "type": "address"
        },
        {
          "internalType": "uint256",
          "name": "_orderID",
          "type": "uint256"
        },
        {
          "internalType": "uint256",
          "name": "_orderAmount",
          "type": "uint256"
        }
      ],
      "name": "burnCustomerAVAX",
      "outputs": [
        {
          "internalType": "bool",
          "name": "",
          "type": "bool"
        }
      ],
      "stateMutability": "nonpayable",
      "type": "function"
    },
    {
      "inputs": [
        {
          "internalType": "address",
          "name": "_token",
          "type": "address"
        },
        {
          "internalType": "uint256",
          "name": "_feeAmount",
          "type": "uint256"
        }
      ],
      "name": "burnFees",
      "outputs": [
        {
          "internalType": "bool",
          "name": "",
          "type": "bool"
        }
      ],
      "stateMutability": "nonpayable",
      "type": "function"
    },
    {
      "inputs": [
        {
          "internalType": "uint256",
          "name": "_feeAmount",
          "type": "uint256"
        }
      ],
      "name": "burnFeesAVAX",
      "outputs": [
        {
          "internalType": "bool",
          "name": "",
          "type": "bool"
        }
      ],
      "stateMutability": "nonpayable",
      "type": "function"
    },
    {
      "inputs": [
        {
          "internalType": "address",
          "name": "_token",
          "type": "address"
        },
        {
          "internalType": "address",
          "name": "_from",
          "type": "address"
        },
        {
          "internalType": "uint256",
          "name": "_orderID",
          "type": "uint256"
        },
        {
          "internalType": "uint256",
          "name": "_orderAmount",
          "type": "uint256"
        }
      ],
      "name": "burnSeller",
      "outputs": [
        {
          "internalType": "bool",
          "name": "",
          "type": "bool"
        }
      ],
      "stateMutability": "nonpayable",
      "type": "function"
    },
    {
      "inputs": [
        {
          "internalType": "address",
          "name": "_token",
          "type": "address"
        },
        {
          "internalType": "address",
          "name": "_from",
          "type": "address"
        },
        {
          "internalType": "uint256",
          "name": "_orderID",
          "type": "uint256"
        },
        {
          "internalType": "uint256",
          "name": "_orderAmount",
          "type": "uint256"
        }
      ],
      "name": "burnSellerAVAX",
      "outputs": [
        {
          "internalType": "bool",
          "name": "status",
          "type": "bool"
        }
      ],
      "stateMutability": "nonpayable",
      "type": "function"
    },
    {
      "inputs": [],
      "name": "decimals",
      "outputs": [
        {
          "internalType": "uint8",
          "name": "",
          "type": "uint8"
        }
      ],
      "stateMutability": "view",
      "type": "function"
    },
    {
      "inputs": [],
      "name": "factory",
      "outputs": [
        {
          "internalType": "address",
          "name": "",
          "type": "address"
        }
      ],
      "stateMutability": "view",
      "type": "function"
    },
    {
      "inputs": [],
      "name": "feeTo",
      "outputs": [
        {
          "internalType": "address",
          "name": "",
          "type": "address"
        }
      ],
      "stateMutability": "view",
      "type": "function"
    },
    {
      "inputs": [
        {
          "internalType": "address",
          "name": "_paymentSystemUID",
          "type": "address"
        },
        {
          "internalType": "address",
          "name": "_WETH",
          "type": "address"
        },
        {
          "internalType": "address",
          "name": "_orderUID",
          "type": "address"
        },
        {
          "internalType": "address",
          "name": "_mediator",
          "type": "address"
        },
        {
          "internalType": "address",
          "name": "_paymentSystemOwner",
          "type": "address"
        },
        {
          "internalType": "address",
          "name": "_feeTo",
          "type": "address"
        }
      ],
      "name": "initializePaymentSystem",
      "outputs": [],
      "stateMutability": "nonpayable",
      "type": "function"
    },
    {
      "inputs": [],
      "name": "mediator",
      "outputs": [
        {
          "internalType": "address",
          "name": "",
          "type": "address"
        }
      ],
      "stateMutability": "view",
      "type": "function"
    },
    {
      "inputs": [
        {
          "internalType": "address",
          "name": "_token",
          "type": "address"
        },
        {
          "internalType": "address",
          "name": "_from",
          "type": "address"
        },
        {
          "internalType": "address",
          "name": "_to",
          "type": "address"
        },
        {
          "internalType": "uint256",
          "name": "_amountIn",
          "type": "uint256"
        },
        {
          "internalType": "uint256",
          "name": "_orderID",
          "type": "uint256"
        },
        {
          "internalType": "bytes32[2]",
          "name": "_title",
          "type": "bytes32[2]"
        },
        {
          "internalType": "enum IBlueberryPayOrderBook.Status",
          "name": "_status",
          "type": "uint8"
        },
        {
          "internalType": "uint256",
          "name": "_maturityTime",
          "type": "uint256"
        }
      ],
      "name": "mint",
      "outputs": [],
      "stateMutability": "nonpayable",
      "type": "function"
    },
    {
      "inputs": [],
      "name": "name",
      "outputs": [
        {
          "internalType": "string",
          "name": "",
          "type": "string"
        }
      ],
      "stateMutability": "view",
      "type": "function"
    },
    {
      "inputs": [
        {
          "internalType": "address",
          "name": "",
          "type": "address"
        }
      ],
      "name": "nonces",
      "outputs": [
        {
          "internalType": "uint256",
          "name": "",
          "type": "uint256"
        }
      ],
      "stateMutability": "view",
      "type": "function"
    },
    {
      "inputs": [],
      "name": "orderBookUID",
      "outputs": [
        {
          "internalType": "address",
          "name": "",
          "type": "address"
        }
      ],
      "stateMutability": "view",
      "type": "function"
    },
    {
      "inputs": [],
      "name": "paymentSystemActive",
      "outputs": [
        {
          "internalType": "bool",
          "name": "",
          "type": "bool"
        }
      ],
      "stateMutability": "view",
      "type": "function"
    },
    {
      "inputs": [],
      "name": "paymentSystemOwner",
      "outputs": [
        {
          "internalType": "address",
          "name": "",
          "type": "address"
        }
      ],
      "stateMutability": "view",
      "type": "function"
    },
    {
      "inputs": [],
      "name": "paymentSystemUID",
      "outputs": [
        {
          "internalType": "address",
          "name": "",
          "type": "address"
        }
      ],
      "stateMutability": "view",
      "type": "function"
    },
    {
      "inputs": [
        {
          "internalType": "address",
          "name": "owner",
          "type": "address"
        },
        {
          "internalType": "address",
          "name": "spender",
          "type": "address"
        },
        {
          "internalType": "uint256",
          "name": "value",
          "type": "uint256"
        },
        {
          "internalType": "uint256",
          "name": "deadline",
          "type": "uint256"
        },
        {
          "internalType": "uint8",
          "name": "v",
          "type": "uint8"
        },
        {
          "internalType": "bytes32",
          "name": "r",
          "type": "bytes32"
        },
        {
          "internalType": "bytes32",
          "name": "s",
          "type": "bytes32"
        }
      ],
      "name": "permit",
      "outputs": [],
      "stateMutability": "nonpayable",
      "type": "function"
    },
    {
      "inputs": [
        {
          "internalType": "address",
          "name": "_from",
          "type": "address"
        },
        {
          "internalType": "bool",
          "name": "_state",
          "type": "bool"
        }
      ],
      "name": "setPaymentSystemState",
      "outputs": [
        {
          "internalType": "bool",
          "name": "status",
          "type": "bool"
        }
      ],
      "stateMutability": "nonpayable",
      "type": "function"
    },
    {
      "inputs": [],
      "name": "symbol",
      "outputs": [
        {
          "internalType": "string",
          "name": "",
          "type": "string"
        }
      ],
      "stateMutability": "view",
      "type": "function"
    },
    {
      "inputs": [],
      "name": "totalSupply",
      "outputs": [
        {
          "internalType": "uint256",
          "name": "",
          "type": "uint256"
        }
      ],
      "stateMutability": "view",
      "type": "function"
    },
    {
      "inputs": [
        {
          "internalType": "address",
          "name": "to",
          "type": "address"
        },
        {
          "internalType": "uint256",
          "name": "value",
          "type": "uint256"
        }
      ],
      "name": "transfer",
      "outputs": [
        {
          "internalType": "bool",
          "name": "",
          "type": "bool"
        }
      ],
      "stateMutability": "nonpayable",
      "type": "function"
    },
    {
      "inputs": [
        {
          "internalType": "address",
          "name": "from",
          "type": "address"
        },
        {
          "internalType": "address",
          "name": "to",
          "type": "address"
        },
        {
          "internalType": "uint256",
          "name": "value",
          "type": "uint256"
        }
      ],
      "name": "transferFrom",
      "outputs": [
        {
          "internalType": "bool",
          "name": "",
          "type": "bool"
        }
      ],
      "stateMutability": "nonpayable",
      "type": "function"
    },
    {
      "stateMutability": "payable",
      "type": "receive"
    }
  ],
  "bytecode": "0x60a0604052600a805460ff60a01b1916600160a01b1790556001600b5534801561002857600080fd5b50604080518082018252601481527f426c756562657272795061796d656e74204c50730000000000000000000000006020918201528151808301835260018152603160f81b90820152905146916100e9917f8b73c3c69bb8fe3d512ecc4cf759cc79239f7b179b0ffacaa9a75d522b39400f917f2d343c199841150b9255d2f9a2a80c625681ad3930c5c26b9ae5ae664bef2f2d917fc89efdaa54c0f20c7adf612882df0950f5a951637e0307cdcb4c672f298b8bc6918691309101610111565b60408051601f198184030181529190528051602090910120600355503360601b60805261013d565b9485526020850193909352604084019190915260608301526001600160a01b0316608082015260a00190565b60805160601c612d516200016360003960008181611032015261125d0152612d516000f3fe6080604052600436106101d15760003560e01c806370a08231116100f7578063ad5c464811610095578063dd62ed3e11610064578063dd62ed3e146104f5578063e0c5423414610515578063f07e7a7c14610535578063fab72e891461055557610200565b8063ad5c464814610496578063c45a0155146104ab578063d505accf146104c0578063d6b264a6146104e057610200565b8063812aacc1116100d1578063812aacc11461042c57806383ef916e1461044c57806395d89b4114610461578063a9059cbb1461047657610200565b806370a08231146103cc5780637ba01c42146103ec5780637ecebe001461040c57610200565b80632cfc65181161016f5780633782dbef1161013e5780633782dbef1461035757806352fc0dba146103775780636370f94c146103975780636d0501f6146103b757610200565b80632cfc6518146102f657806330adf81f1461030b578063313ce567146103205780633644e5151461034257610200565b80630b22de02116101ab5780630b22de021461027f57806318160ddd1461029f5780631cd4a3fa146102c157806323b872dd146102d657610200565b8063017e7e581461020557806306fdde0314610230578063095ea7b31461025257610200565b36610200576007546001600160a01b031633146101fe57634e487b7160e01b600052600160045260246000fd5b005b600080fd5b34801561021157600080fd5b5061021a610575565b60405161022791906123a0565b60405180910390f35b34801561023c57600080fd5b50610245610584565b60405161022791906124e8565b34801561025e57600080fd5b5061027261026d36600461223a565b6105b4565b6040516102279190612482565b34801561028b57600080fd5b5061027261029a366004611fec565b6105ca565b3480156102ab57600080fd5b506102b46108d6565b604051610227919061248d565b3480156102cd57600080fd5b5061021a6108dc565b3480156102e257600080fd5b506102726102f1366004612113565b6108eb565b34801561030257600080fd5b5061021a610981565b34801561031757600080fd5b506102b4610990565b34801561032c57600080fd5b506103356109b4565b6040516102279190612bb6565b34801561034e57600080fd5b506102b46109b9565b34801561036357600080fd5b50610272610372366004611fec565b6109bf565b34801561038357600080fd5b5061027261039236600461220d565b610bf3565b3480156103a357600080fd5b506102726103b2366004612153565b610c45565b3480156103c357600080fd5b5061021a610f30565b3480156103d857600080fd5b506102b46103e7366004611f17565b610f3f565b3480156103f857600080fd5b5061027261040736600461232f565b610f51565b34801561041857600080fd5b506102b4610427366004611f17565b611015565b34801561043857600080fd5b506101fe610447366004611f6b565b611027565b34801561045857600080fd5b50610272611200565b34801561046d57600080fd5b50610245611210565b34801561048257600080fd5b5061027261049136600461223a565b61123f565b3480156104a257600080fd5b5061021a61124c565b3480156104b757600080fd5b5061021a61125b565b3480156104cc57600080fd5b506101fe6104db366004612198565b61127f565b3480156104ec57600080fd5b5061021a6113fa565b34801561050157600080fd5b506102b4610510366004611f33565b611409565b34801561052157600080fd5b5061027261053036600461223a565b611426565b34801561054157600080fd5b50610272610550366004612153565b611491565b34801561056157600080fd5b506101fe610570366004612046565b611820565b600a546001600160a01b031681565b60405180604001604052806014815260200173426c756562657272795061796d656e74204c507360601b81525081565b60006105c1338484611996565b50600192915050565b600a54600090600160a01b900460ff166105ff5760405162461bcd60e51b81526004016105f690612a86565b60405180910390fd5b600b546001146106215760405162461bcd60e51b81526004016105f690612977565b6000600b8190556008546040516332c13e1960e01b81526001600160a01b03909116906332c13e199061065a9089908890600401612469565b6101606040518083038186803b15801561067357600080fd5b505afa158015610687573d6000803e3d6000fd5b505050506040513d601f19601f820116820180604052508101906106ab9190612281565b9050856001600160a01b031681604001516001600160a01b0316146106e25760405162461bcd60e51b81526004016105f690612589565b60018160800151600581111561070857634e487b7160e01b600052602160045260246000fd5b14801561072a5750806101000151421015801561072a57504281610120015111155b80610758575060028160800151600581111561075657634e487b7160e01b600052602160045260246000fd5b145b6107745760405162461bcd60e51b81526004016105f690612afe565b61077e85846119fe565b83856001600160a01b0316600080516020612cfc833981519152856040516107a6919061248d565b60405180910390a360085460405162fb8ec560e11b81526000916001600160a01b0316906301f71d8a906107e5908b908b908a90600390600401612434565b602060405180830381600087803b1580156107ff57600080fd5b505af1158015610813573d6000803e3d6000fd5b505050506040513d601f19601f820116820180604052508101906108379190612265565b9050806108565760405162461bcd60e51b81526004016105f6906125c0565b600754604051632e1a7d4d60e01b81526001600160a01b0390911690632e1a7d4d9061088690879060040161248d565b600060405180830381600087803b1580156108a057600080fd5b505af11580156108b4573d6000803e3d6000fd5b505050506108c28785611a96565b6001925050506001600b5595945050505050565b60005481565b6005546001600160a01b031681565b6001600160a01b03831660009081526002602090815260408083203384529091528120546000191461096b576001600160a01b0384166000908152600260209081526040808320338452909152902054610946908390612c53565b6001600160a01b03851660009081526002602090815260408083203384529091529020555b610976848484611b28565b5060015b9392505050565b6008546001600160a01b031681565b7f6e71edae12b1b97f4d1f60370fef10105fa2faae0126114a169c64845d6126c981565b601281565b60035481565b6000600b546001146109e35760405162461bcd60e51b81526004016105f690612977565b6000600b8190556008546040516332c13e1960e01b81528892916001600160a01b0316906332c13e1990610a1d908a908990600401612469565b6101606040518083038186803b158015610a3657600080fd5b505afa158015610a4a573d6000803e3d6000fd5b505050506040513d601f19601f82011682018060405250810190610a6e9190612281565b9050866001600160a01b031681604001516001600160a01b031614610aa55760405162461bcd60e51b81526004016105f690612589565b600481608001516005811115610acb57634e487b7160e01b600052602160045260246000fd5b14610ae85760405162461bcd60e51b81526004016105f690612750565b610af286856119fe565b84866001600160a01b0316600080516020612cfc83398151915286604051610b1a919061248d565b60405180910390a360085460405162fb8ec560e11b81526000916001600160a01b0316906301f71d8a90610b59908c908c908b90600390600401612434565b602060405180830381600087803b158015610b7357600080fd5b505af1158015610b87573d6000803e3d6000fd5b505050506040513d601f19601f82011682018060405250810190610bab9190612265565b905080610bca5760405162461bcd60e51b81526004016105f690612552565b610bde6001600160a01b0384168887611bce565b600193505050506001600b5595945050505050565b6005546000906001600160a01b03848116911614610c235760405162461bcd60e51b81526004016105f6906125f7565b50600a8054821515600160a01b0260ff60a01b19909116179055600192915050565b6000600b54600114610c695760405162461bcd60e51b81526004016105f690612977565b6000600b55600a54600160a01b900460ff16610c975760405162461bcd60e51b81526004016105f690612a86565b6008546040516332c13e1960e01b8152859185916000916001600160a01b0316906332c13e1990610cce9086908690600401612469565b6101606040518083038186803b158015610ce757600080fd5b505afa158015610cfb573d6000803e3d6000fd5b505050506040513d601f19601f82011682018060405250810190610d1f9190612281565b9050826001600160a01b031681602001516001600160a01b031614610d565760405162461bcd60e51b81526004016105f690612719565b6008546040516332c13e1960e01b815289916000916001600160a01b03909116906332c13e1990610d8d908c908c90600401612469565b6101606040518083038186803b158015610da657600080fd5b505afa158015610dba573d6000803e3d6000fd5b505050506040513d601f19601f82011682018060405250810190610dde9190612281565b9050600281608001516005811115610e0657634e487b7160e01b600052602160045260246000fd5b14610e235760405162461bcd60e51b81526004016105f690612793565b610e2d89886119fe565b87896001600160a01b0316600080516020612cfc83398151915289604051610e55919061248d565b60405180910390a360085460405162fb8ec560e11b81526000916001600160a01b0316906301f71d8a90610e94908e908e908e90600390600401612434565b602060405180830381600087803b158015610eae57600080fd5b505af1158015610ec2573d6000803e3d6000fd5b505050506040513d601f19601f82011682018060405250810190610ee69190612265565b905080610f055760405162461bcd60e51b81526004016105f6906128cb565b610f196001600160a01b0384168b8a611bce565b6001965050505050506001600b5550949350505050565b6009546001600160a01b031681565b60016020526000908152604090205481565b6000600b54600114610f755760405162461bcd60e51b81526004016105f690612977565b6000600b55600a54610f90906001600160a01b0316836119fe565b600754604051632e1a7d4d60e01b81526001600160a01b0390911690632e1a7d4d90610fc090859060040161248d565b600060405180830381600087803b158015610fda57600080fd5b505af1158015610fee573d6000803e3d6000fd5b5050600a5461100992506001600160a01b0316905083611a96565b50600180600b55919050565b60046020526000908152604090205481565b336001600160a01b037f0000000000000000000000000000000000000000000000000000000000000000161461106f5760405162461bcd60e51b81526004016105f69061262e565b6001600160a01b0386166110955760405162461bcd60e51b81526004016105f690612abb565b6001600160a01b0385166110bb5760405162461bcd60e51b81526004016105f69061269c565b6001600160a01b0384166110e15760405162461bcd60e51b81526004016105f690612894565b6001600160a01b0382166111075760405162461bcd60e51b81526004016105f690612932565b6001600160a01b03811661112d5760405162461bcd60e51b81526004016105f6906128fb565b6001600160a01b0383166111535760405162461bcd60e51b81526004016105f690612817565b600680546001600160a01b03199081166001600160a01b038981169190911790925560078054821688841617905560088054821687841617908190556009805483168785161790556005805483168685161790819055600a8054909316858516179092556040519083169230927fa4d2201137159ee76f2b07b68f91cdc2496df5a30c9552bd2781ebc5a06610cb926111f09291909116906123a0565b60405180910390a3505050505050565b600a54600160a01b900460ff1681565b604051806040016040528060138152602001720426c756562657272795061796d656e742d4c5606c1b81525081565b60006105c1338484611b28565b6007546001600160a01b031681565b7f000000000000000000000000000000000000000000000000000000000000000081565b4284101561129f5760405162461bcd60e51b81526004016105f6906129a0565b6003546001600160a01b038816600090815260046020526040812080549192917f6e71edae12b1b97f4d1f60370fef10105fa2faae0126114a169c64845d6126c9918b918b918b9190876112f283612c9a565b919050558a60405160200161130c96959493929190612496565b60405160208183030381529060405280519060200120604051602001611333929190612385565b60405160208183030381529060405280519060200120905060006001828686866040516000815260200160405260405161137094939291906124ca565b6020604051602081039080840390855afa158015611392573d6000803e3d6000fd5b5050604051601f1901519150506001600160a01b038116158015906113c85750886001600160a01b0316816001600160a01b0316145b6113e45760405162461bcd60e51b81526004016105f690612b51565b6113ef898989611996565b505050505050505050565b6006546001600160a01b031681565b600260209081526000928352604080842090915290825290205481565b6000600b5460011461144a5760405162461bcd60e51b81526004016105f690612977565b6000600b55600a54611465906001600160a01b0316836119fe565b600a548390611481906001600160a01b03808416911685611bce565b60019150506001600b5592915050565b600a54600090600160a01b900460ff166114bd5760405162461bcd60e51b81526004016105f690612a86565b6008546040516332c13e1960e01b8152859185916000916001600160a01b0316906332c13e19906114f49086908690600401612469565b6101606040518083038186803b15801561150d57600080fd5b505afa158015611521573d6000803e3d6000fd5b505050506040513d601f19601f820116820180604052508101906115459190612281565b9050826001600160a01b031681602001516001600160a01b03161461157c5760405162461bcd60e51b81526004016105f690612719565b600b5460011461159e5760405162461bcd60e51b81526004016105f690612977565b6000600b8190556008546040516332c13e1960e01b81526001600160a01b03909116906332c13e19906115d7908b908b90600401612469565b6101606040518083038186803b1580156115f057600080fd5b505afa158015611604573d6000803e3d6000fd5b505050506040513d601f19601f820116820180604052508101906116289190612281565b905060018160800151600581111561165057634e487b7160e01b600052602160045260246000fd5b1480156116725750806101000151421015801561167257504281610120015111155b806116a0575060028160800151600581111561169e57634e487b7160e01b600052602160045260246000fd5b145b6116bc5760405162461bcd60e51b81526004016105f690612afe565b6116c688876119fe565b86886001600160a01b0316600080516020612cfc833981519152886040516116ee919061248d565b60405180910390a360085460405162fb8ec560e11b81526000916001600160a01b0316906301f71d8a9061172d908d908d908d90600390600401612434565b602060405180830381600087803b15801561174757600080fd5b505af115801561175b573d6000803e3d6000fd5b505050506040513d601f19601f8201168201806040525081019061177f9190612265565b90508061179e5760405162461bcd60e51b81526004016105f690612665565b600754604051632e1a7d4d60e01b81526001600160a01b0390911690632e1a7d4d906117ce908a9060040161248d565b600060405180830381600087803b1580156117e857600080fd5b505af11580156117fc573d6000803e3d6000fd5b5050505061180a8988611a96565b60019550505050506001600b5550949350505050565b600b546001146118425760405162461bcd60e51b81526004016105f690612977565b6000600b55846118645760405162461bcd60e51b81526004016105f69061251b565b600061186f86611c24565b9050600061187d8288612c53565b90506118898883611c6a565b85886001600160a01b03167f4c209b5fc8ad50758f13e2e1088ba56a560dff690a1c6fef26394f4c03821c4f846040516118c3919061248d565b60405180910390a36118d481611ced565b6008546040516316ba81cb60e01b81526000916001600160a01b0316906316ba81cb90611913908e908d908f908e908e908e908e908e906004016123b4565b602060405180830381600087803b15801561192d57600080fd5b505af1158015611941573d6000803e3d6000fd5b505050506040513d601f19601f820116820180604052508101906119659190612265565b9050806119845760405162461bcd60e51b81526004016105f690612b88565b50506001600b55505050505050505050565b6001600160a01b0380841660008181526002602090815260408083209487168084529490915290819020849055517f8c5be1e5ebec7d5bd14f71427d1e84f3dd0314c0f7b2291e5b200ac8c7c3b925906119f190859061248d565b60405180910390a3505050565b6001600160a01b038216600090815260016020526040902054611a22908290612c53565b6001600160a01b03831660009081526001602052604081209190915554611a4a908290612c53565b60009081556040516001600160a01b038416907fddf252ad1be2c89b69c2b068fc378daa952ba7f163c4a11628f55a4df523b3ef90611a8a90859061248d565b60405180910390a35050565b604080516000808252602082019092526001600160a01b038416908390604051611ac09190612369565b60006040518083038185875af1925050503d8060008114611afd576040519150601f19603f3d011682016040523d82523d6000602084013e611b02565b606091505b5050905080611b235760405162461bcd60e51b81526004016105f69061284e565b505050565b6001600160a01b038316600090815260016020526040902054611b4c908290612c53565b6001600160a01b038085166000908152600160205260408082209390935590841681522054611b7c908290612bfc565b6001600160a01b0380841660008181526001602052604090819020939093559151908516907fddf252ad1be2c89b69c2b068fc378daa952ba7f163c4a11628f55a4df523b3ef906119f190859061248d565b611b238363a9059cbb60e01b8484604051602401611bed929190612469565b60408051601f198184030181529190526020810180516001600160e01b03166001600160e01b031990931692909217909152611d26565b6000808211611c455760405162461bcd60e51b81526004016105f6906127e0565b6000611c53836103de612c34565b9050611c616103e882612c14565b9150505b919050565b80600054611c789190612bfc565b60009081556001600160a01b038316815260016020526040902054611c9e908290612bfc565b6001600160a01b0383166000818152600160205260408082209390935591519091907fddf252ad1be2c89b69c2b068fc378daa952ba7f163c4a11628f55a4df523b3ef90611a8a90859061248d565b60008111611d0d5760405162461bcd60e51b81526004016105f690612a05565b600a54611d23906001600160a01b031682611c6a565b50565b6000611d7b826040518060400160405280602081526020017f5361666545524332303a206c6f772d6c6576656c2063616c6c206661696c6564815250856001600160a01b0316611db59092919063ffffffff16565b805190915015611b235780806020019051810190611d999190612265565b611b235760405162461bcd60e51b81526004016105f690612a3c565b6060611dc48484600085611dcc565b949350505050565b606082471015611dee5760405162461bcd60e51b81526004016105f6906126d3565b611df785611e8c565b611e135760405162461bcd60e51b81526004016105f6906129ce565b600080866001600160a01b03168587604051611e2f9190612369565b60006040518083038185875af1925050503d8060008114611e6c576040519150601f19603f3d011682016040523d82523d6000602084013e611e71565b606091505b5091509150611e81828286611ebd565b979650505050505050565b600080826001600160a01b0316803b806020016040519081016040528181526000908060200190933c511192915050565b60608315611ecc57508161097a565b825115611edc5782518084602001fd5b8160405162461bcd60e51b81526004016105f691906124e8565b8051611c6581612ccb565b8035611c6581612cee565b8051611c6581612cee565b600060208284031215611f28578081fd5b813561097a81612ccb565b60008060408385031215611f45578081fd5b8235611f5081612ccb565b91506020830135611f6081612ccb565b809150509250929050565b60008060008060008060c08789031215611f83578182fd5b8635611f8e81612ccb565b95506020870135611f9e81612ccb565b94506040870135611fae81612ccb565b93506060870135611fbe81612ccb565b92506080870135611fce81612ccb565b915060a0870135611fde81612ccb565b809150509295509295509295565b600080600080600060a08688031215612003578081fd5b853561200e81612ccb565b9450602086013561201e81612ccb565b9350604086013561202e81612ccb565b94979396509394606081013594506080013592915050565b600080600080600080600080610120898b031215612062578182fd5b883561206d81612ccb565b975060208981013561207e81612ccb565b975060408a013561208e81612ccb565b965060608a0135955060808a0135945060bf8a018b136120ac578283fd5b6120b66040612bc4565b8060a08c0160e08d018e8111156120cb578687fd5b865b60028110156120ea578235855293850193918501916001016120cd565b508297506120f781611f01565b9650505050505061010089013590509295985092959890939650565b600080600060608486031215612127578283fd5b833561213281612ccb565b9250602084013561214281612ccb565b929592945050506040919091013590565b60008060008060808587031215612168578182fd5b843561217381612ccb565b9350602085013561218381612ccb565b93969395505050506040820135916060013590565b600080600080600080600060e0888a0312156121b2578081fd5b87356121bd81612ccb565b965060208801356121cd81612ccb565b95506040880135945060608801359350608088013560ff811681146121f0578182fd5b9699959850939692959460a0840135945060c09093013592915050565b6000806040838503121561221f578182fd5b823561222a81612ccb565b91506020830135611f6081612ce0565b6000806040838503121561224c578182fd5b823561225781612ccb565b946020939093013593505050565b600060208284031215612276578081fd5b815161097a81612ce0565b6000610160808385031215612294578182fd5b61229d81612bc4565b90506122a883611ef6565b81526122b660208401611ef6565b60208201526122c760408401611ef6565b6040820152606083015160608201526122e260808401611f0c565b608082015260a0838101519082015260c0808401519082015260e0808401519082015261010080840151908201526101208084015190820152610140928301519281019290925250919050565b600060208284031215612340578081fd5b5035919050565b6006811061236557634e487b7160e01b600052602160045260246000fd5b9052565b6000825161237b818460208701612c6a565b9190910192915050565b61190160f01b81526002810192909252602282015260420190565b6001600160a01b0391909116815260200190565b6001600160a01b0389811682528881166020808401919091529088166040830152606082018790526080820186905261012082019060a08301908660005b600281101561240f578151845292820192908201906001016123f2565b5050505061242060e0830185612347565b826101008301529998505050505050505050565b6001600160a01b0385811682528416602082015260408101839052608081016124606060830184612347565b95945050505050565b6001600160a01b03929092168252602082015260400190565b901515815260200190565b90815260200190565b9586526001600160a01b0394851660208701529290931660408501526060840152608083019190915260a082015260c00190565b93845260ff9290921660208401526040830152606082015260800190565b6000602082528251806020840152612507816040850160208701612c6a565b601f01601f19169190910160400192915050565b6020808252601d908201527f4250533a3a6d696e7420494e53554646494349454e545f414d4f554e54000000604082015260600190565b60208082526018908201527f4250533a3a6275726e437573746f6d6572206661696c65640000000000000000604082015260600190565b6020808252601a908201527f4250533a3a4f6e6c7920437573746f6d657220616c6c6f776564000000000000604082015260600190565b6020808252601c908201527f4250533a3a6275726e437573746f6d657241564158206661696c656400000000604082015260600190565b6020808252601f908201527f4250533a3a4f6e6c79205061796d656e74204f776e657220416c6c6f77656400604082015260600190565b60208082526019908201527f4250533a3a696e697469616c697a6520464f5242494444454e00000000000000604082015260600190565b6020808252601a908201527f4250533a3a6275726e53656c6c657241564158206661696c6564000000000000604082015260600190565b60208082526017908201527f4250533a3a5f5745544820616464726573732069732030000000000000000000604082015260600190565b60208082526026908201527f416464726573733a20696e73756666696369656e742062616c616e636520666f6040820152651c8818d85b1b60d21b606082015260800190565b60208082526018908201527f4250533a3a4f6e6c792053656c6c657220616c6c6f7765640000000000000000604082015260600190565b60208082526023908201527f4250533a3a4f726465725374617465204e6f742065787065637465642073746160408201526274757360e81b606082015260800190565b6020808252602d908201527f4250533a3a6275726e53656c6c6572202d204e6f74206578706563746564207360408201526c7461747573206f722074696d6560981b606082015260800190565b6020808252601e908201527f416d6f756e744f75743a20494e53554646494349454e545f414d4f554e540000604082015260600190565b6020808252601b908201527f4250533a3a5f6d65646961746f72206164647265737320697320300000000000604082015260600190565b60208082526026908201527f5472616e7366657248656c7065723a3a736166655472616e736665724554482060408201526519985a5b195960d21b606082015260800190565b6020808252601b908201527f4250533a3a5f6f72646572554944206164647265737320697320300000000000604082015260600190565b602080825260169082015275109414ce8e989d5c9b94d95b1b195c8819985a5b195960521b604082015260600190565b60208082526018908201527f4250533a3a5f666565546f206164647265737320697320300000000000000000604082015260600190565b60208082526025908201527f4250533a3a5f7061796d656e7453797374656d4f776e65722061646472657373604082015264020697320360dc1b606082015260800190565b6020808252600f908201526e109414ce9b1bd8dac81313d0d2d151608a1b604082015260600190565b602080825260149082015273109b1d5958995c9c9e558c8e881156141254915160621b604082015260600190565b6020808252601d908201527f416464726573733a2063616c6c20746f206e6f6e2d636f6e7472616374000000604082015260600190565b6020808252601c908201527f4250533a3a6d696e744665652046454520414d4f554e54204953203000000000604082015260600190565b6020808252602a908201527f5361666545524332303a204552433230206f7065726174696f6e20646964206e6040820152691bdd081cdd58d8d9595960b21b606082015260800190565b6020808252818101527f4250533a3a5061796d656e7453797374656d206973206e6f7420616374697665604082015260600190565b60208082526023908201527f4250533a3a5f7061796d656e7453797374656d5549442061646472657373206960408201526207320360ec1b606082015260800190565b60208082526033908201527f4250533a3a6275726e437573746f6d657241564158202d204e6f7420657870656040820152726374656420737461747573206f722074696d6560681b606082015260800190565b6020808252601e908201527f426c7565626572727956323a20494e56414c49445f5349474e41545552450000604082015260600190565b602080825260149082015273109414ce8e98591913dc99195c8819985a5b195960621b604082015260600190565b60ff91909116815260200190565b60405181810167ffffffffffffffff81118282101715612bf457634e487b7160e01b600052604160045260246000fd5b604052919050565b60008219821115612c0f57612c0f612cb5565b500190565b600082612c2f57634e487b7160e01b81526012600452602481fd5b500490565b6000816000190483118215151615612c4e57612c4e612cb5565b500290565b600082821015612c6557612c65612cb5565b500390565b60005b83811015612c85578181015183820152602001612c6d565b83811115612c94576000848401525b50505050565b6000600019821415612cae57612cae612cb5565b5060010190565b634e487b7160e01b600052601160045260246000fd5b6001600160a01b0381168114611d2357600080fd5b8015158114611d2357600080fd5b60068110611d2357600080fdfe49995e5dd6158cf69ad3e9777c46755a1a826a446c6416992167462dad033b2aa2646970667358221220e749027e9a29f0efd55af555cd850ed5cac66e890a78cdf4fa6643e040feadde64736f6c63430008000033",
  "linkReferences": {},
  "deployedLinkReferences": {}
}